:020000040800F2
:10000000D807002099020008B72D0008DF27000854
:10001000B52D0008B31400084F330008000000009D
:10002000000000000000000000000000CF300008C9
:10003000B514000800000000B92D0008D1300008F8
:10004000B3020008B3020008B3020008B3020008BC
:10005000B3020008B3020008B3020008B3020008AC
:10006000B3020008B3020008B3020008B30200089C
:10007000B3020008B3020008B3020008B30200088C
:10008000B302000800000000B3020008B302000839
:10009000B3020008B3020008B3020008B30200086C
:1000A000B3020008B3020008B3020008B30200085C
:1000B0004D31000859310008B3020008B3020008AE
:1000C000B3020008B3020008B3020008B30200083C
:1000D000B3020008B3020008B3020008B30200082C
:1000E000B3020008B3020008B3020008B30200081C
:1000F000B3020008B3020008B302000800000000C9
:1001000000000000B302000800000000B302000875
:10011000B302000800000000B3020008B3020008A8
:10012000B3020008B3020008B3020008B3020008DB
:10013000B30200080000000000000000B302000845
:10014000B3020008B3020008000000000000000035
:10015000000000000000000000000000000000009F
:10016000000000000000000000000000B3020008D2
:10017000B3020008000000000000000000000000C2
:1001800000000000B30200080000000000000000B2
:10019000000000000000000000000000000000005F
:1001A0000000000000000000B3020008B3020008D5
:1001B000B3020008B3020008B30200080000000008
:1001C00000000000B3020008000000000000000072
:1001D000B3020008B302000800F002F800F04CF887
:1001E0000AA090E8000C82448344AAF10107DA4592
:1001F00001D100F041F8AFF2090EBAE80F0013F098
:10020000010F18BFFB1A43F0010318476C5400009C
:100210008C540000103A24BF78C878C1FAD852072D
:1002200024BF30C830C144BF04680C607047000070
:100230000023002400250026103A28BF78C1FBD8EF
:10024000520728BF30C148BF0B607047662904F0D1
:10025000D680642900F07C80002070471FB504F030
:10026000C4F800F0E9FB04000020002103F0B8FD11
:10027000E0601FBD10B510BD00F0DEFC1146FFF7B9
:10028000EDFF03F077FD00F0FCFC03B4FFF7F2FF95
:1002900003BC00F03FFD00000948804709480047C3
:1002A000FEE7FEE7FEE7FEE7FEE7FEE7FEE7FEE726
:1002B000FEE7FEE704480549054A064B7047000083
:1002C0003D310008D9010008D8010020D8070020DE
:1002D000D8030020D80300200FB41CB5074B06AA92
:1002E0007B4469460090059800F08DFB002069462C
:1002F00000F09CFB1CBC5DF814FB000049070000EB
:1003000070B5044685690068C10601D5302600E055
:100310002026C00707D070BDD4E9012130469047A0
:10032000206A401C20626D1EF6D570BD70B5044673
:1003300085690078C00707D170BDD4E9012120206C
:100340009047206A401C20626D1EF6D570BD0000EB
:100350002DE9F0410646002410687529314616A59E
:1003600010D0AFF30080002802DA404213A507E066
:1003700031688A0701D512A502E0490704D511A505
:10038000012401E0AFF3008000210A2206F12407D6
:1003900009E0B0FBF2FCB0FBF2F302FB1C003030D2
:1003A00078541846491C0028F3D123462A46304683
:1003B000BDE8F04100F0B9B8000000002D000000D9
:1003C0002B000000200000002DE9F0474FF0000A4C
:1003D00089460446C0F820A02046E16888470028E6
:1003E00076D0252806D0D4E901219047206A401C08
:1003F0002062F1E7E168204600258847C4F81CA088
:1004000006460027C4F818A02A2E09D0304602F06C
:10041000C7FF38B304EB8708303EC8F8186019E00E
:1004200059F8041B204604EB87029161E168884774
:10043000012F064618D1E069002820DA25F02005B2
:100440001DE0D8F8180000EB800006EB40003038C3
:10045000C8F818002046E1688847064602F0A0FF69
:100460000028EED1012F0AD02E2E08D12046E168B7
:1004700088477F1C0646022F45F02005C4DBA06993
:10048000002803DA404245F00105A061E80701D0E9
:1004900025F01005B6B1A6F14100192802D8203682
:1004A00045F400654A463146204625604D46FFF733
:1004B000CDFE58B1012806D0ED1D25F0070000F152
:1004C000080989E704E005F1040985E730468AE771
:1004D000206ABDE8F0874FF0000200B5134694464D
:1004E0009646203922BFA0E80C50A0E80C50B1F18C
:1004F0002001BFF4F7AF090728BFA0E80C5048BFA0
:100500000CC05DF804EB890028BF40F8042B08BF3D
:10051000704748BF20F8022B11F0804F18BF00F839
:10052000012B70477047704770472DE9F0470D4623
:1005300099469246044600F124080168880604D5CD
:10054000E06921F01001216000E00120A84201DDF6
:10055000471B00E00027A1697A1902EB0900081A7D
:10056000A0612078C00602D42046FFF7C9FE00260D
:1005700008E0D4E901211AF806009047206A401CDF
:10058000761C20624E45F4DB2078C0060AD5204652
:10059000FFF7B6FE06E0D4E9012130209047206A3B
:1005A000401C2062381EA7F10107F4DC07E0D4E903
:1005B000012118F805009047206A401C2062281E7F
:1005C000A5F10105F3DC2046FFF7B0FE2078000618
:1005D00002D50220BDE8F0870120FBE770472DE936
:1005E000FF4F0C461E464FF0FF378BB0D2E900019B
:1005F000DDF860800A908A46C1F30A5505B93D4688
:10060000002108464FF00000BAF1000F00F440004E
:1006100005DA00EB80004FF4400101EA50004FEA98
:100620009059B9F1010F00DDB9460A9850EA4A0025
:100630000ED044F61050A5F2FF3545432F14B8F103
:10064000000F1ED07542291E1EDDC9F100021CE0FC
:10065000B8F1010F4FF0000001D0302103E0F24368
:1006600005E02154401CB042FBDB30460022002153
:1006700021540B99C1F80880C1E900200FB0BDE8F2
:10068000F08FBD1B6D1CDEE74A4600DA694206A802
:1006900000F05CFA06AB93E8070003AB83E80700C1
:1006A00050460A9900F03DFB8DE80700A0F5005088
:1006B0001F3800900398002D0ADD42F21F014A46C0
:1006C0000844002303A90390684600F0A6FD09E052
:1006D000A0F500504A461F38002303A9039068463E
:1006E00000F0B0FD8DE807000004000C03D04FF0CF
:1006F000FF30410800E01046B8F1000F03D000229F
:10070000009215461EE0751E05D400F099F93032AE
:1007100062556D1EF9D5B3460122084302D000226E
:100720007F1C04E02078302801D100227F1E002A9F
:10073000099784D01DE0112D07DA00F081F93032DD
:1007400062556D1C50EA0102F5D1084302D00098B1
:10075000C8B10EE00021681E05E0235C625C6354B2
:100760002254401E491C8142F7DBAB46A81B401EA9
:100770000990002004F80B000B98099AC0F8088033
:10078000C0E9002B7AE711264FF0000857E72DE962
:10079000F04F88460446D21D22F0070191B0D1E9FE
:1007A0000001CDE90A0102F0D3FD02460B98C00F0B
:1007B00001D02D2007E02068810701D52B2002E021
:1007C000202101EAC000032A099001D0072A05DB95
:1007D00003464146204600F079F90BE12078800677
:1007E00001D5E06900E00620B8F1650F814606D02A
:1007F000B8F1660F18D0B8F1670F70D131E0002062
:10080000B9F1110F009001DB112301E009F101039F
:100810000AAA01A90CA8FFF7E2FEDDE90C70002688
:1008200009F10105834647E001204B4600904FF057
:1008300000470AAA01A90CA8FFF7D1FEDDE90DB017
:100840000C995D46002610B909F101000D18B9EBAD
:10085000050003D4C0F1FF3609F10105A5EB09003D
:100860002BE0B9F1010F01DA4FF001090020B9F1D5
:10087000110F0090484601DD112300E003460AAA4B
:1008800001A90CA8FFF7ABFEDDE90C704D46002670
:100890008346207800070AD4AB4500DA5D4601A8FC
:1008A000012D04DD411911F8011C302907D04F45F5
:1008B00002DA17F1040F04DA012082460FE06D1E00
:1008C000EEE7002F02DCED1B3E4403E0781CA8425B
:1008D00000DD7D1CB81B00F1010A4FF000472078B5
:1008E000000703D4AA4501DB4FF0FF3A0021B7F11E
:1008F000004F0DF143088DF8431024D002202B2324
:10090000002F01DA7F422D230A21021EA0F10100EF
:1009100000DC5FB197FBF1FC97FBF1F201FB1C7C63
:1009200017460CF1300C08F801CDEEE7A8F10100F4
:1009300003702188090501D5452100E06521A0F15A
:10094000010800F8011C09980FA9A1EB0807FF1D79
:1009500000B10120411901EBEA70A1693844081A7D
:10096000401EA0612078C00602D42046FFF7C8FCD4
:10097000099828B1D4E901219047206A401C2062DF
:100980002078C00622D52046FFF7BAFC1EE0002ED4
:1009900004DBB34502DD01A8805D00E03020D4E92E
:1009A00001219047206A401C2062761CAAF10100B8
:1009B0005FEA000A0AD100F03FF8C0680168405CB5
:1009C000D4E901219047206A401C2062281EA5F12D
:1009D0000105DCDC07E0D4E9012118F8010B9047A0
:1009E000206A401C2062381EA7F10107F3DC204674
:1009F000FFF79CFC032011B041E6000001694A1C8E
:100A000002610878704700B58FB0CDE9013100214F
:100A1000059105497944CDE9031011466846FFF771
:100A2000D3FC0FB000BD0000E5FFFFFF0A6802F82D
:100A3000010B0A60704700000048704798010020D1
:100A400030B5B0F10A024FEA900E71F100034EEAA0
:100A5000817EB0EB0E0061EB91014FEA101E4EEA71
:100A6000017E10EB0E0041EB11114FEA102E4EEA01
:100A7000016E10EB0E0041EB11214FEA104E4EEAD1
:100A8000014E10EB0E0041EB1141401841F1000105
:100A90004FEAD00040EA41704FEAD10110EB8005E7
:100AA0004FEA810444EA907444EB01046D1944EB6D
:100AB0000404521BA3414FF0000348BF0A3200D583
:100AC00030BD401C41F1000130BD00002DE9F04176
:100AD0001F46044603260168072A01F4006004DB70
:100AE00008B116A505E016A503E008B115A500E0BC
:100AF00015A521F010002060A069C01EA0610FB1F3
:100B0000401EA0612046FFF7FBFB4FB1D4E9012155
:100B100038469047206A401C2062C01C206206E0D4
:100B2000206AFAE7D4E9012115F8010B9047761EF7
:100B3000F8D22046FFF7FAFBBDE8F0814E414E00A7
:100B40006E616E00494E4600696E66002DE9F04701
:100B5000814616468AB0354878440DC88DE80D00A8
:100B600032487844801C03AC0DC884E80D0041F67F
:100B70009B300844372190FBF1F290FBF1F5A5F191
:100B8000800501FB12041B3C02D56442012000E0F9
:100B90000020DFF898A080460027FA44AAF1BE0A98
:100BA0000EE0E0070AD03246684607EB4701012312
:100BB0000AEB810100F046FB8DE8070064107F1C02
:100BC000002CEED1194F7F44AE3F19E0E80715D055
:100BD00007EB04100DF1180A90E80E008AE80E00E9
:100BE000C068F04201D1981908903246012306A945
:100BF00003A800F027FB03AB83E807006D10641C1B
:100C0000002DE3D14FF0010332466946B8F1000FE1
:100C100003A802D000F001FB01E000F013FBC9E9DA
:100C20000001C9F808200AB0BDE8F087044B0000B5
:100C300000487047780100207546FFF7F9FFAE467F
:100C400005006946534620F00700854618B020B5D8
:100C5000FFF730FBBDE820404FF000064FF00007E3
:100C60004FF000084FF0000B21F00701AC46ACE854
:100C7000C009ACE8C009ACE8C009ACE8C0098D46C1
:100C8000704710B50446AFF300802046BDE8104021
:100C9000FFF7FBBA4FF0013C50F8042B51F8043B2E
:100CA0009A4221D1A2EB0C03934313EACC1317D140
:100CB00050F8042B51F8043B9A4215D1A2EB0C03D7
:100CC000934313EACC130BD150F8042B51F8043B97
:100CD0009A4209D1A2EB0C03934313EACC13DBD065
:100CE0004FF00000704700BFD01A01BAB1FA81F18D
:100CF00001F0180122FA01F0CB40C1F12001DBB272
:100D0000C0B2C01A2CFA01F3D11A914311EAC311EF
:100D1000E6D1704701491820ABBEFEE7260002006D
:100D200070475FEA400C08BF91F0000F4FEA8C2338
:100D30004FEAC12243EA51514FEA1C5018BF00F557
:100D4000F0404FEA300018BF41F000415FEA6C5CB0
:100D500000F02980BCF1FF3F08BF40F080407047A1
:100D6000130C06BF12044FF0100C4FF0000C130EC2
:100D700004BF12020CF1080C130F04BF12010CF196
:100D8000040C930F04BF92000CF1020CD30F04BFAC
:100D900052000CF1010C11464FF00002A0F11F00AF
:100DA000A0EB0C00704711F0004F08BF704731F006
:100DB00000413FF4D5AF0B0C06BF09044FF0100CF7
:100DC0004FF0000C0B0E04BF09020CF1080C0B0FC6
:100DD00004BF09010CF1040C8B0F04BF89000CF156
:100DE000020CCB0F04BF49000CF1010CCCF1200325
:100DF000A0EB0C0022FA03F302FA0CF241EA030121
:100E000000F10100704720F07F4C80EA030023F0DE
:100E10007F47ACEB070303F57C5300F0004003F180
:100E2000FF032DE980494FEA154B09B44FEA1443FB
:100E300025EA0B4E24EA03480FF2042606EB13279B
:100E400049083E785FEA320203FB0667C7F50007F0
:100E500007FB06F64FEA54374FEAD64606F102067C
:100E600007FB066CCCF1005C4FEA1C472CEA074CF0
:100E700007FB06F40CFB06F504EB15464FEA961645
:100E800034BF00204FF000404FEAD13706FB07FC8B
:100E90004FEA1C4C0CFB0BF7D21B03FB0CF761EB6E
:100EA00007010CFB0EF7B0EB074072EB17420CFB8F
:100EB00008F734BFA2EB0742B2EB074261EB1741E0
:100EC0004FEA0C444FEA910706FB07FC4FEA1C4C23
:100ED0000CFB0BF7B0EBC74072EB573203FB0CF780
:100EE00034BFA2EBC742B2EBC74261EB57310CFBF8
:100EF0000EF7B0EBC70072EB57720CFB08F734BF6C
:100F0000A2EBC702B2EBC70261EB5771039F4FEA36
:100F1000816141EA921104EBCC044FEAD1374FEAE8
:100F2000826206FB07FC42EA90124FEA80604FEAB9
:100F30001C4C0CFB0BF7D21B03FB0CF761EB0701FE
:100F40000CFB0EF7B0EB074072EB17420CFB08F7F7
:100F500034BFA2EB0742B2EB074261EB17414FEA05
:100F60008C554FEA910704EB9C2406FB07FC4FEAE3
:100F70001C4C0CFB0BF7B0EBC74072EB573203FB7A
:100F80000CF734BFA2EBC742B2EBC74261EB57315B
:100F90000CFB0EF7B0EBC70072EB57720CFB08F7B7
:100FA00034BFA2EBC702B2EBC70261EB577115EB7E
:100FB0004C254FEA816141EA92114FEA82624FEA81
:100FC000D13742EA901206FB07FC44F100044FEAD5
:100FD00080604FEA1C4C0CFB0BF7D21B03FB0CF799
:100FE00061EB07010CFB0EF7B0EB074072EB174209
:100FF0000CFB08F734BFA2EB0742B2EB074261EBF0
:10100000174115EB1C154FEA813141EA92414FEA35
:10101000823242EA90424FEA80304FEA0C7644F145
:10102000000448EA03434EEA0B484FF0000EB2EBCF
:10103000080C71EB030724BF624639464EEB0E0ED7
:101040004FF0000B0018524149414BEB0B0BB2EB38
:10105000080C71EB03077BF1000B24BF6246394695
:101060004EEB0E0E4FF0000B0018524149414BEB76
:101070000B0BB2EB080C71EB03077BF1000B24BFE9
:10108000624639464EEB0E0E51EA020718BF46F093
:10109000010616EB0E7655F1000254F1000103D55E
:1010A000BDE88901BDE80088BDE88901BDE80048C8
:1010B000B619524141EB0101A3F101037047808051
:1010C0007F7E7D7C7B7A79787776767574737271A2
:1010D00071706F6E6E6D6C6C6B6A6A69686867665A
:1010E00066656464636362616160605F5F5E5E5DEC
:1010F0005D5C5C5B5B5A5A59595858575756565560
:1011000055555454535352525251515050504F4FC1
:101110004F4E4E4D4D4D4C4C4C4B4B4B4A4A4A4911
:101120004949484848474747474646464545454454
:101130004444444343434342424242414141002BE1
:101140009C4630D477002BD01CB54FEA370703B448
:101150004FF010004FF01001BAF1000F06D0BCF1B3
:10116000000FDCBF40F0080040F008014FF0000025
:101170000FBCBDE810400BF1010BBBF1010F08BF24
:101180005FEA170722BF12F1010211F101014FF0CE
:10119000004143F1000300F0004043EA00007047C3
:1011A000F9D35708D0E746EA064613F1400F4FEA55
:1011B00016461FDD13F1200FDFBF16430A4600213C
:1011C00020335B42BED0C3F1200746EA064602FA4E
:1011D00007F74FEA164646EA0706C3F1200722FA48
:1011E00003F201FA07F721FA03F14FF0000342EA94
:1011F0000702A7E746EA020646EA06464FEA16460F
:1012000046EA0106BCBF46EA0646360C4FF000032C
:101210004FF000024FF0000194E72DE9804C9A4610
:10122000934670B491E8380007C831EA400C48BFD3
:1012300034EA430C03D5FFF7E6FDFFF780FFF0BC6F
:10124000BDE8008C2DE9804C9A46934670B491E835
:10125000380007C810F0804F08BF13F0804F03D14B
:1012600000F005F8FFF76BFFF0BCBDE8008C20F044
:101270007F4780EA030023F07F4C07EB0C03A3F5C4
:101280007C5300F00040A3F1FE0392F0000F00F049
:10129000B38095F0000F00F077802DE901494FEA07
:1012A00011404FEA144621EA004800FB06FC24EAFC
:1012B000064708FB06F607FB08F800FB07F718EBE4
:1012C00006484CEB164C4FEA124B18EB07484FEA16
:1012D00015464CEB174022EA0B4E0BFB06FC25EAA9
:1012E00006470EFB06F607FB0EFE0BFB07F71EEB91
:1012F000064E4CEB164C4FF000061EEB074E4CEB27
:10130000174B18EB0B0840F1000018EB0E0B58EBD5
:10131000000840F100008F1A4FF000013CBFC943A4
:10132000661B14BFB5EB040C00213CBFC943F61B80
:101330004FEA17444EEA8E0E27EA04454FEA1C474F
:1013400004FB07622CEA074C05FB07F70CFB05F6CC
:1013500004FB0CFC16EB074642EB174216EB0C465F
:1013600042EB1C421BEB060658EB0202414146EAE7
:101370009E0601D5BDE80189B619524141EB010134
:10138000A3F10103BDE801894FEA14454FEA114773
:1013900024EA054621EA074C05FB07F406FB07F79C
:1013A0000CFB06F105FB0CFC11EB074144EB174469
:1013B0004FEA124711EB0C4144EB1C4422EA074C64
:1013C00005FB07F206FB07F70CFB06F605FB0CFC1A
:1013D00016EB074642EB174216EB0C4642EB1C4558
:1013E0006A1854F1000148BF7047B619524141EBE9
:1013F0000101A3F10103704795F0000F37D04FEAC8
:1014000011424FEA144721EA024624EA074C02FB44
:1014100007F106FB07F70CFB06F402FB0CFC14EBD0
:10142000074441EB17414FEA154714EB0C4441EBDD
:101430001C4125EA074C02FB07F506FB07F70CFBEE
:1014400006F602FB0CFC16EB074645EB174516EBC0
:101450000C4645EB1C42121951F1000148BF704780
:10146000B619524141EB0101A3F1010370474FEA64
:1014700014454FEA114724EA054621EA074C05FBCB
:1014800007F106FB07F70CFB06F24FF0000605FB21
:101490000CFC12EB074241EB174112EB0C4251EBF3
:1014A0001C4148BF7047921841EB0101A3F10103B1
:1014B0007047FEE77047002240F6B83306E000218F
:1014C000491C89B29942FBD3521C92B28242F6D394
:1014D000704772B6FEE7000070B5044600F03CF9B4
:1014E0000546601C02D004484068044400F034F90A
:1014F000401BA042FAD370BD000000202DE9F04F40
:10150000DFF82092002301260324A9F1040B85B003
:101510000F2709F1040AABF1040EFAE006FA03F50D
:101520002A407CD091F804C00CF0030CBCF1010FF0
:1015300002D0BCF1020F26D1D0F808C0CDF800C00F
:101540004FEA430C04FA0CF8CDF810C0DDF800C0E7
:101550002CEA080CCDF800C0D1F80C80DDF810C0E2
:1015600008FA0CF8DDF800C048EA0C08C0F808805A
:10157000D0F804C02CEA050C0D79C5F300159D4088
:1015800045EA0C0545600D79ED43AD070ED0C56801
:101590004FEA430804FA08FC25EA0C05D1F808C014
:1015A0000CFA08FC4CEA050CC0F80CC00D7905F0EB
:1015B0000305022D16D1DD0800EB850CCDF808C01F
:1015C000DCF820805D074FEAD56C07FA0CF528EAB5
:1015D00005080D6905FA0CF5DDF808C045EA0805AF
:1015E000CCF8205005684FEA430CCDF808C004FA47
:1015F0000CFC25EA0C0591F804C00CF00308DDF89A
:1016000008C008FA0CF848EA0508C0F800804D68E0
:1016100015F4403F7CD0444DD5F860C000E077E041
:101620004CF0010CC5F860C02D6E23F0030C05F0E2
:10163000010500953D4D65440295AD684FEA837CF8
:101640004FEA1C7807FA08FC25EA0C05B0F1904F28
:1016500006D0DFF8DCC0604505D14FF0010C20E07A
:101660004FF0000C1DE0DFF8CCC0604502D14FF018
:10167000020C16E0DFF8C0C0604502D14FF0030C49
:101680000FE0DFF8B8C0604502D14FF0040C08E06D
:10169000DFF8ACC0604502D14FF0050C01E04FF01F
:1016A000060C0CFA08FC4CEA050C029DC5F808C0B3
:1016B000D9F80050CC46D1F8048095435FEAC82899
:1016C00000D51543CCF80050DAF80050D446D1F8D4
:1016D000048095435FEA882800D51543CCF8005074
:1016E000DBF80050DC46D1F8048095435FEA883887
:1016F00000D51543CCF80050DEF80050F446D1F880
:10170000048095435FEAC83800D51543CCF80050F3
:101710005B1C0A6832FA03F57FF400AF05B0BDE840
:10172000F08F00000804014000100240000001405A
:101730000004004800080048000C00480010004861
:10174000001400480069084000D0012070470AB129
:10175000816170478162704701488068704700006E
:10176000000000200248816842681144816070478F
:101770000000002010B50024032000F073F80F20B3
:1017800000F008F808B1012401E000F025F8204637
:1017900010BD000070B50E4E05460024706898B16B
:1017A0004FF47A71B1FBF0F00A490968B1FBF0F02F
:1017B00000F0F8FB40B9102D06D200222946501E39
:1017C00000F030F8356000E00124204670BD0000D4
:1017D000000000200C0000200A4882B0016E41F099
:1017E00001010166016E01F001010091816D41F07E
:1017F00080518165806D00F08050009002B000F053
:10180000A1B8000000100240002809DB00F01F0210
:10181000012191404009800000F1E020C0F8001152
:1018200070470000F0B40E4B1B680C46C3F3022354
:10183000C3F10705042D00D90425191D072901D27C
:10184000002300E0DB1E012606FA05F1491E2140B7
:1018500099409E40761E16403143F0BC01F090BD89
:101860000CED00E0064900F0070208684FF6FF03A0
:10187000184040EA0220034A104308607047000005
:101880000CED00E00000FA052B492C4B0A683221D0
:101890004A432B4940B1B0F5007F086829D020F4B5
:1018A000C06040F480602CE00868C0F3412002284A
:1018B00004D051F8800F20F4807022E0D1F880002D
:1018C00020F48070C1F88000086820F4C06040F403
:1018D00000700860B2FBF3F0401C00E0401E4A6953
:1018E000520501D50028F9D1486940050AD50320E1
:1018F0007047C0F34120022806D051F8800F40F411
:101900008070086000207047D1F8800040F480703B
:10191000C1F88000086820F4C06040F400700860DE
:10192000B2FBF3F0401C00E0401E4A695205DBD5D3
:101930000028F9D1D8E700000C00002040420F0039
:10194000007000400248816841F480418160704726
:10195000007000402DE9F0470E4605004FF00007EB
:1019600025D0DFF8AC81D8F8000000F00F00B042BD
:101970000CD2D8F8001021F00F013143C8F8001044
:10198000D8F8000000F00F00B04210D12968614C77
:10199000C80741F2883A5AD06868DFF87C9103287A
:1019A00008D0022820682DD0400500282CDB01201B
:1019B000BDE8F08720688001F9D5E06800F00302F7
:1019C000E068C0F30310401C032A19D0534A00BF3B
:1019D000B2FBF0F0E268C2F306225043E268C2F3C1
:1019E0004162521C5200B0FBF2F0484517D9A06882
:1019F00010F0F00F0CD0880711D5A86840B10EE0A8
:101A0000474AE5E78003D0E700F092F8484506D959
:101A1000A06820F0F00040F08000A0608027A0685F
:101A2000696820F003000843A060FFF795FE814637
:101A300006E000BFFFF790FEA0EB090151453AD840
:101A4000A068696800F00C00B0EB810FF2D1286843
:101A5000810714D5400703D5A06840F4E060A0607A
:101A60002878000705D5A06820F4605040F4E060B5
:101A7000A060A068A96820F0F000084304E0802F6F
:101A800003D1A06820F0F000A060D8F80010404614
:101A900001F00F01B14216D9016821F00F01314365
:101AA0000160FFF759FE074607E000BFFFF754FE4D
:101AB000C11B514501D903207AE7D8F8000000F096
:101AC0000F00B042F2D12878400705D5A068E96838
:101AD00020F4E0600843A0602878000706D5A068DD
:101AE000296920F4605040EAC100A06000F020F8AD
:101AF000A1680C4AC1F30311515C01F01F01C840F9
:101B00000949086009480068BDE8F047FFF742BE90
:101B1000002002400010024000B4C4040024F4007D
:101B200000366E01024400080C0000200000002076
:101B3000184910B58868C0F381021748012A0BD0F4
:101B40008A68164BC2F38102022A06D08A68C2F361
:101B50008102032A03D0002010BD184610BDCA68B8
:101B600002F00304CA68C2F30312521C032C02D011
:101B7000B0FBF2F001E0B3FBF2F0CA68C968C2F34F
:101B800006225043C1F34161491C4900B0FBF1F00A
:101B900010BD0000001002400024F40000366E0169
:101BA0002DE9F84304007AD02078F84DC00747D0DB
:101BB000A868E96800F00C0001F003010C2802D0CD
:101BC000082817D001E0032914D06068B0F5803FE1
:101BD00017D0B0F5A02F286817D020F480302860E7
:101BE000286820F4802028606068E0B1FFF7B4FD29
:101BF000064614E02868800322D560680028D2D009
:101C00001EE0286840F48030EDE740F48020286032
:101C1000F7E700BFFFF7A0FD801B642870D8286895
:101C20008003F7D50CE0FFF797FD064605E000BFFF
:101C3000FFF792FD801B6428F0D828688003F7D452
:101C4000207880074CD5A868E96800F00C0001F006
:101C500003010C2802D004280DD001E002290AD08B
:101C6000E068002828682BD040F480702860FFF7D7
:101C700073FD064619E02868400502D5E068002893
:101C800091D06868217C20F0FE4040EA01606860E5
:101C9000BF480068FFF77EFD002800D120E072E118
:101CA000FFF75AFD801B0228B8D828684005F7D5F1
:101CB0006868217C20F0FE4040EA016068600FE027
:101CC00020F480702860FFF747FD064605E000BF5E
:101CD000FFF742FD801B0228A0D828684005F7D4F2
:101CE0002078000729D560690028D5F8940013D022
:101CF00040F00100C5F89400FFF72EFD064606E00F
:101D000090E000BFFFF728FD801B022886D8D5F899
:101D100094008007F6D510E020F00100C5F894008B
:101D2000FFF71AFD064604E0FFF716FD801B0228A8
:101D300078D8D5F894008007F6D42078400761D58C
:101D4000A86D0026C00008D4A86D40F08050A8659A
:101D5000A86D012600F0805000908E480168C905EA
:101D600011D40168804641F480710160FFF7F4FCF2
:101D7000074604E0FFF7F0FCC01B022852D8D8F851
:101D80000000C005F6D5A068012815D00528D5F8B3
:101D9000900016D020F00100C5F89000D5F8900012
:101DA00020F00400C5F89000A06841F28838B8B16E
:101DB000FFF7D2FC07460EE0D5F8900040F0010096
:101DC000F0E740F00400C5F89000F5E7FFF7C4FC29
:101DD000C11B414526D8D5F890008007F6D50CE008
:101DE000FFF7BAFC074604E0FFF7B6FCC11B41450C
:101DF00018D8D5F890008007F6D41EB1A86D20F051
:101E00008050A8652078800629D5A0690028D5F8DB
:101E1000980013D040F00100C5F89800FFF79CFC33
:101E2000064606E075E000BFFFF796FC801B02281F
:101E30006FD8D5F898008007F6D510E020F00100A3
:101E4000C5F89800FFF788FC064604E0FFF784FC1D
:101E5000801B02285DD8D5F898008007F6D4E06989
:101E6000F0B3A968C1F3810103295DD00228286875
:101E700020F08070286003D0FFF76EFC04464BE032
:101E8000FFF76AFC064604E0FFF766FC801B0228A9
:101E90003FD828688001F7D4F4E908016FF00F02F9
:101EA00002EB01110843218A5204490802EB415117
:101EB000A26841EA02210843217D4FF07E42490891
:101EC00002EB41610843217B40EAC160E968324A84
:101ED00011400843E860286840F08070286000E006
:101EE0005EE0E86840F08070E860FFF735FC04468B
:101EF00005E000BFFFF730FC001B022809D8286866
:101F00008001F7D54CE000BFFFF726FC001B02283C
:101F100002D90320BDE8F88328688001F4D4E8687A
:101F20001E490840E8603BE00128F3D0E868226AD7
:101F300000F00301914226D1616A00F0F00209012C
:101F4000103991421FD1A26A00F4FE41B1EB022F79
:101F500019D194F82C2000F07841B1EBC26F12D166
:101F6000218E00F4C00249084905A1F500119142F3
:101F700009D194F8341000F0C06049084906A1F175
:101F8000007181420CD00120C4E700000010024023
:101F900000000020007000400C809F01FCFFEEFE5E
:101FA0000020B7E710B5401EB0F1807F01D30120BB
:101FB00010BD4FF0E02460610F21601701F0E0F9DF
:101FC0000020A06107202061002010BD70477047ED
:101FD0007047704770477047F0B590F83C20012A71
:101FE0003AD0012580F83C50022280F83D20036859
:101FF0005A689C68194E1A4FB34201D0BB4204D1B3
:1020000022F4700C4A6842EA0C02DFF858C002EA77
:102010000C02D1F800C04CEA020CC3F804C00268FC
:10202000B2420DD0B2F1804F0AD00F4B9A4207D086
:102030000E4B9A4204D0BA4202D00D4B9A4204D1C0
:10204000896824F080031943916080F83D50002195
:1020500080F83C100846F0BD0220F0BD002C014085
:10206000003401408FFFFFFD0004004000080040E5
:1020700000400140704710B5040003D094F83D00C3
:1020800010B107E0012010BD002084F83C0020467C
:1020900000F022F8022084F83D00211D206801F0A4
:1020A00061F8012084F8480084F83E0084F83F007D
:1020B00084F8400084F8410084F8420084F843002A
:1020C00084F8440084F8450084F8460084F847000A
:1020D00084F83D00002010BD08B50068064988421C
:1020E00008D10648816D41F004018165806D00F0E2
:1020F0000400009008BD00000008004000100240ED
:1021000090F83D10012901D001207047022180F88C
:102110003D1000680F4988420ED0B0F1804F0BD0BF
:102120000D49884208D00D49884205D00C498842A3
:1021300002D00C49884207D181680B4A1140062918
:1021400006D0B1F5803F03D0016841F00101016084
:1021500000207047002C01400004004000080040AF
:1021600000340140004001400700010070B5044602
:1021700090F83C000025012814D0012684F83C602A
:10218000022084F83D0022689068364B184020F405
:102190007F409060086870282ED010DC10F00F0F80
:1021A00003D021E04FF0020070BD4FEA2012072A51
:1021B0001AD2DFE802F0525252524A3840002A4BFB
:1021C000C21A984249D009DCB0F5805F0DD0B0F555
:1021D000005F1CD0B0F1101F06D13EE0102A3CD0A9
:1021E000202A3AD0502A38D0012584F83D600020BA
:1021F00084F83C00284670BDCB68D1E901212068F5
:1022000001F01BF82068816841F0770109E0CB6894
:10221000D1E90121206801F010F82068816841F4BB
:1022200080418160E1E7CA684968206801F01AF8D6
:102230005021206806E0CA684968206801F05AF811
:102240006021206801F004F8CFE7CA684968206877
:1022500001F008F840212068F4E7226801461046A2
:10226000F0E7000088FFCEFF2000100030B50568C1
:102270004FF0804200230F490F4C954208D1556B17
:102280004D63536205EB85021201B4FBF2F20A635F
:1022900000680A4A90420CD1084834300068074A66
:1022A000C8632432136000EB80000001B4FBF0F03F
:1022B000886330BD1000002000B4C4040004004056
:1022C0002DE9F041054690F83C0000260C46012817
:1022D00010D0012085F83C0072B1042A1CD0082AD5
:1022E0002CD00C2A50D00126002085F83C00304626
:1022F000BDE8F0810220FBE7D4E90012E36828681A
:1023000000F0C2FF2868816921F00C018161286812
:102310008169A26811430FE0D4E90012E3682868DC
:1023200000F0FAFF2868816921F440618161286822
:102330008169A26841EA02218161D5E72868D4E970
:10234000002C277B036A016A21F480710162C16954
:1023500023F4206321F0030141EA0C0121F0F00C89
:1023600039074FF420674CEA116107EA02221A4349
:10237000C16102622868C16921F00C01C16128684D
:10238000C169A26811432BE02868D4E90021E768FD
:10239000036AD0F820C02CF4805CC0F820C0D0F8CC
:1023A0001CC023F420432CF4407C4CEA012121F48E
:1023B000704C4FF6FF7101EA07314FF4204741EAB4
:1023C0000C0107EA02321A43C16102622868C1693E
:1023D00021F44061C1612868C169A26841EA022113
:1023E000C16181E710B5040003D094F83D0010B13D
:1023F00007E0012010BD002084F83C00204600F0DA
:1024000023F8022084F83D00211D206800F0AAFE78
:10241000012084F8480084F83E0084F83F0084F8E6
:10242000400084F8410084F8420084F8430084F8B6
:10243000440084F8450084F8460084F8470084F896
:102440003D00002010BD000010B586B004461421E8
:102450006846FEF740F82368002128480222B3F1BD
:10246000804F27D0264CA34222D1836D43F0020334
:102470008365836D03F002030593C36C43F002038D
:10248000C364C06C00F00200059010200090CDE9FC
:102490000121CDE9031269461A48FFF72FF80022FF
:1024A00011461D20FFF7BEF95FF01D00FFF7ACF9E4
:1024B00006B010BD836D43F001038365836D03F0A7
:1024C00001030593C36C43F00103C364C06C00F0C7
:1024D000010005904FF400400090CDE9012101205A
:1024E000CDE9031069464FF09040FFF707F800224E
:1024F00011461C20FFF796F91C20D7E70010024078
:10250000000400400004004830B50446002571B1C5
:10251000042911D0082914D00C2917D0102918D05B
:1025200094F8430094F84720012817D114E094F858
:102530003E0094F84420F7E794F83F0094F84520D3
:10254000F2E794F8400094F84620EDE794F8410053
:10255000E8E794F84200E5E7012A01D0012030BD08
:10256000022079B1042916D008291DD00C2949D0A0
:1025700010294AD084F8430084F847000C2947D03A
:1025800001253DE084F83E0084F844002068C268DC
:1025900042F0020210E084F83F0084F84500206811
:1025A000C26842F0040207E084F8400084F8460064
:1025B0002068C26842F00802C2600122206800F070
:1025C0002FFE1649206888420ED0B0F1804F0BD004
:1025D0001349884208D01349884205D012498842DD
:1025E00002D01249884207D18168114A1140062958
:1025F00006D0B1F5803F03D0016841F001010160D0
:10260000284630BD84F84100B6E784F84200B3E7BD
:102610002068C26842F01002CEE70000002C0140A2
:102620000004004000080040003401400040014028
:10263000070001002DE9F04104460068C6680569FD
:102640004FF00007A90713D5B10711D5F91E016195
:1026500001202077206880698007204602D0FFF79C
:1026600005FE04E000F0B7F8204600F0B5F8277743
:10267000680716D5700714D521686FF0040008614B
:10268000022020772068806910F4407F204602D025
:10269000FFF7ECFD04E000F09EF8204600F09CF807
:1026A0002777280715D5300713D521686FF0080064
:1026B0000861042020772068C0698007204602D086
:1026C000FFF7D4FD04E000F086F8204600F084F81F
:1026D0002777E80616D5F00614D521686FF01000AC
:1026E0000861082020772068C06910F4407F2046E8
:1026F00002D0FFF7BBFD04E000F06DF8204600F0CB
:102700006BF82777E80708D0F00706D021686FF04C
:1027100001000861204600F060F8280601D4A804F2
:1027200008D5300606D521686FF4025008612046AE
:10273000FFF74DFCE80508D5300606D521686FF493
:10274000807008612046FFF741FC680608D57006D6
:1027500006D521686FF040000861204600F03EF881
:10276000A80608D5B00606D521686FF020000861DC
:102770002046FFF72DFCE80208D5F00206D52168B7
:102780006FF4801008612046FFF724FCA80208D5EA
:10279000B00206D521686FF4001008612046FFF7EB
:1027A00018FC680208D5700206D521686FF4800015
:1027B00008612046FFF70FFC28020AD5300208D531
:1027C00021686FF4000008612046BDE8F041FFF782
:1027D00051BCBDE8F0817047704770477047FEE715
:1027E00000B585B014216846FDF775FE4FF6FF7001
:1027F000009000200321CDE90201019069460248C2
:10280000FEF77CFE05B000BD0008004800B585B0AD
:1028100014216846FDF75FFE4FF6FF70009001201F
:102820000190032003900020029069460248FEF7C1
:1028300065FE05B000BD00000008004870B500242A
:1028400006462146204600F003F900F041F94FF416
:102850009635304600F010F9641CAC42F9D370BDD7
:1028600070B586B014216846FDF735FE1E48C16C70
:1028700041F00401C164C16C01F004010591C16C17
:1028800041F00101C164C16C01F001010591C16C0D
:1028900041F00201C164C06C032500F00200059004
:1028A0004FF448700124002603958DE851006946D5
:1028B0000E48FEF723FE200203958DE851004FF0ED
:1028C000904469462046FEF719FEFFF79FFFA06976
:1028D00040F48070A06105481830016841F4087127
:1028E000016006B070BD0000001002400004004806
:1028F000203AD2B2034B02EB420203EB021200F089
:1029000019B8000012440008F0B50E46074600252D
:1029100040F23F1407E021463846FFF7E9FF103C3C
:102920006D1CA4B2761C3278002A01D0142DF2D38B
:10293000F0BD00002DE9F04791468A460026044686
:1029400000F086F8DFF84080012700BF00F0C0F8F3
:102950005FF0000539F8160007FA05F10842404615
:1029600001D1408800E0008800F086F86D1C102D31
:10297000F0D3641CE4B25146204600F069F8761C9E
:10298000182EE3D3BDE8F0877000002010B5FFF7E4
:1029900067FF002000F014F8084CA080A088A0F584
:1029A0000241303906D000F091FA002000F008F81A
:1029B000A08010BD00F001FAF7E7000070000020D1
:1029C00070B51D490A6842F400720A600A6842F450
:1029D00080720A60184C103C226842F0200222608B
:1029E000164A1060086840F02000086000BF00BF71
:1029F00000BF206840F020002060206840F4807014
:102A00002060FFF7EDFE4FF09041886A40F480703F
:102A1000886200BF00BF00BF0848001F006885B281
:102A2000886940F480708861FFF7F0FE206840F408
:102A300000702060284670BD280400481408004833
:102A400001B5BDF800000149488008BD70000020B4
:102A500010B50C460146202000F068F82146BDE87C
:102A60001040212000F062B801B5BDF80000014916
:102A7000088008BD70000020134A116841F40071FD
:102A80001160114910390B6843F480730B600B68B7
:102A900043F020030B600D4B1860106840F02000DD
:102AA000106000BF00BF00BF086840F02000086051
:102AB000086840F48070086000BF00BF00BF08686D
:102AC00040F400700860704728040048140800486B
:102AD0001449086840F400700860086840F4807089
:102AE000086010481038026842F0200202600E4B65
:102AF00022221A600A6842F020020A6000BF00BF6A
:102B000000BF016841F020010160016841F480715B
:102B1000016000BF00BF00BF016841F400710160A7
:102B2000704700002804004814080048184B10B5EE
:102B30001A6842F400721A601A6842F480721A60CD
:102B4000134A103A146844F020041460114C2060B9
:102B5000186840F02000186000BF00BF00BF106878
:102B600040F020001060106840F480701060216018
:102B7000186840F02000186000BF00BF00BF106858
:102B800040F020001060106840F48070106010BDAC
:102B90002804004814080048F0B587B0142168469E
:102BA000FDF799FC2D48C16C41F00401C164C16C72
:102BB00001F004010591C16C41F02001C164C16CB8
:102BC00001F020010591C16C41F00101C164C16CAB
:102BD00001F001010591C16C41F00201C164C16CB9
:102BE00001F002010591C16C41F00801C164C06CA3
:102BF0001B4E00F008004FF47F440590012221464F
:102C00003046FEF7A4FD174F012204213846FEF797
:102C10009EFD0125CDE90045002402946946304619
:102C20000394FEF76BFCCDE9005469464FF09040E9
:102C30000295FEF763FC07208DE8310069460A48DB
:102C4000FEF75CFC04200090CDE90154694638464B
:102C50000394FEF753FC07B0F0BD000000100240E3
:102C600000080048000C00480004004810B588B077
:102C70000024184805940694049400940194029446
:102C80004FF08041039401604F21C0E90114611E9F
:102C9000C0E903148461FFF7A5FB08B1FEF719FC36
:102CA000049404A90B480694FFF796F908B1FEF7BF
:102CB00010FC0120CDE9004002940022694605483D
:102CC0000394FFF7FDFA002801D0FEF702FC08B0DC
:102CD00010BD00007800002010B588B0002419480D
:102CE0000594069404940094019402941449039466
:102CF00001604F21C0E901144FF6FF71C0E90314D0
:102D00008461FFF76FFB08B1FEF7E3FB049404A9AD
:102D10000C480694FFF760F908B1FEF7DAFB0120D2
:102D2000CDE9004002940022694606480394FFF76B
:102D3000C7FA002801D0FEF7CCFB08B010BD000098
:102D400000040040C400002010B588B000241848DA
:102D500000940194029403940494059413490694F6
:102D6000016041F63F71C0E901144FF6FF71C0E9FF
:102D700003148461FFF77FF908B1FEF7AAFB4FF453
:102D80008050009069460A48FFF7F0F908B1FEF755
:102D9000A0FB049404A906480694FFF71DF9002837
:102DA00001D0FEF796FB08B010BD000000080040FF
:102DB00010010020FEE7FEE7704730B5012100203A
:102DC000FFF7B4FE4FF47A70FEF775FB0021012087
:102DD000FFF7ACFE41F290711020FFF7A7FE4FF411
:102DE0001C516020FFF7A2FE01216120FFF79EFE2B
:102DF00002214620FFF79AFE48F210011320FFF748
:102E000095FE48F2FE011220FFF790FE4FF4A061FC
:102E10000220FFF78BFE41F230010320FFF786FE10
:102E200040F2033421463020FFF780FE2146312056
:102E3000FFF77CFE21463220FFF778FEE51E29468B
:102E40003320FFF773FE03213420FFF76FFE214686
:102E50003520FFF76BFE14213620FFF767FE214671
:102E60003720FFF763FE21463820FFF75FFE21463B
:102E70003920FFF75BFE29463A20FFF757FE032172
:102E80003B20FFF753FE21463C20FFF74FFE4FF457
:102E9000A0513D20FFF74AFE4FF400719220FFF74A
:102EA00045FE21469320FFF741FE40F60D0190209C
:102EB000FFF73CFE41F218010320FFF737FEBDE8A3
:102EC000304040F273110720FFF730BE10B543F2D7
:102ED0000801E320FFF72AFE1221E720FFF726FE74
:102EE00041F23121EF20FFF721FE00210120FFF701
:102EF0001DFE4FF4E0610220FFF718FE41F23001A1
:102F00000320FFF713FE00210420FFF70FFE40F21D
:102F100007210820FFF70AFE00210920FFF706FE1F
:102F200000210A20FFF702FE00210C20FFF7FEFD22
:102F300000210D20FFF7FAFD00210F20FFF7F6FD1D
:102F400000211020FFF7F2FD07211120FFF7EEFD11
:102F500000211220FFF7EAFD00211320FFF7E6FD14
:102F6000C820FEF7B9FA41F290611020FFF7DEFDAC
:102F700040F227211120FFF7D9FD3220FEF7ACFAED
:102F80001D211220FFF7D2FD3220FEF7A5FA4FF4E3
:102F900000611320FFF7CAFD14212920FFF7C6FDA9
:102FA0000B212B20FFF7C2FD3220FEF795FA0021FE
:102FB0002020FFF7BBFD00212120FFF7B7FD0721EF
:102FC0003020FFF7B3FD40F207713120FFF7AEFD6F
:102FD00006213220FFF7AAFD40F204713520FFF7E9
:102FE000A5FD41F604713620FFF7A0FD042137202E
:102FF000FFF79CFD00213820FFF798FD40F2067195
:103000003920FFF793FD40F201713C20FFF78EFD60
:103010000F213D20FFF78AFD00215020FFF786FD9C
:10302000EF215120FFF782FD00215220FFF77EFDA6
:1030300040F23F115320FFF779FD4FF41C516020FF
:10304000FFF774FD01216120FFF770FD00216A2068
:10305000FFF76CFD00218020FFF768FD0021812033
:10306000FFF764FD00218220FFF760FD002183202F
:10307000FFF75CFD00218420FFF758FD002185202B
:10308000FFF754FD10219020FFF750FD0021922002
:10309000FFF74CFD03219320FFF748FD4FF48871A3
:1030A0009520FFF743FD00219720FFF73FFD00210A
:1030B0009820FFF73BFD41F218010320FFF736FD92
:1030C000BDE8104040F273110720FFF72FBD704795
:1030D000FEF748BB10B594B038216846FDF7FBF900
:1030E00014210EA8FDF7F7F94FF40070FEF7CCFBA2
:1030F000012000900004019002200324CDE9070480
:103100001421CDE90A100C900D9009946846FEF741
:1031100047FD08B172B6FEE70F20CDE90E0400208E
:1031200010901190129002210EA8FEF713FC0028B7
:1031300001D072B6FEE714B010BD0000024801686D
:1031400041F470010160704788ED00E00148FFF72D
:1031500071BA0000780000200148FFF76BBA000048
:10316000C40000202DE9F0430268264B264D274E6F
:10317000274C4FF08049984207D0484505D0A842D7
:1031800003D0B04201D0A04203D122F070074A68B8
:103190003A43204FDFF880C0DFF8808098420DD09E
:1031A00048450BD0A84209D0B04207D0A04205D074
:1031B000B84203D0604501D0404503D122F44075A8
:1031C000CA682A434D6922F080022A4302608A6855
:1031D000C2620A688262984207D0A04205D0B84213
:1031E00003D0604501D0404501D109690163012147
:1031F00041610169C90703D0016921F00101016141
:10320000BDE8F083002C01400004004000080040AD
:1032100000340140004001400044014000480140AA
:1032200010B501F01F030121046A99408C43046228
:10323000016A9A401143016210BD10B5846842EAE8
:10324000032224F47F440A432243826010BD00001D
:103250008268034B1A400A4342F0070181607047BD
:103260008FFFCFFF10B5036A046A24F001040462E3
:10327000846924F0F00444EA021423F00A020A43A9
:103280008461026210BD000070B5056A046A24F012
:10329000010404628469124EB0420ED0B0F1804F36
:1032A0000BD0104EB04208D00F4EB04205D00F4E9A
:1032B000B04202D00E4EB04203D124F003041443B6
:1032C00001E044F001041A0724F0F00444EA126219
:1032D00025F00A0301F00A0119438261016270BD01
:1032E000002C014000040040000800400034014070
:1032F0000040014010B5036A046A24F0100404621F
:10330000846923F0A00324F4704444EA023243EABF
:1033100001118261016210BD30B5046A056A25F0B1
:1033200010050562856925F4407545EA022222F4FC
:1033300070454FF6FF7202EA033224F0A0032A43DD
:10334000A02404EA011119438261016230BDFEE745
:1033500003B401984100009850EAC12018BF04202E
:103360004A0D18BF40F0010040F2FF72B2EB515F0E
:1033700008BF40F00200012808BF052002B07047D6
:103380000907090E002804DB00F1E02080F8001492
:10339000704700F00F0000F1E02080F8141D704726
:1033A00030380A2801D20120704700207047000001
:1033B00070B5224B1868B0F5FA7F3DD3204802461D
:1033C000C67A946B156BA1B2AAB23EB942838283CE
:1033D000C18301841E68C6620126C672468BAE4256
:1033E00000D24283868BAE4200D98283C58BA54230
:1033F00000D2C183058CA54200D901841C68C56A2E
:10340000641B40F6B835AC4216D31B68C362438BCD
:10341000848B1C1BC3899C4204DD448A641C448247
:1034200042838283C28B048C121B9A4204DD828AFF
:10343000521C8282C183018470BD000008000020FC
:10344000100000202DE9F0412C482DED068B01687D
:10345000012700262A4C642904D90168626A891A66
:10346000642945D300686062A56A206B284400F097
:1034700090FE41EC180B84ED108BA06B284400F0FB
:1034800088FE41EC190B9FED1FAB84ED129B53ECB2
:10349000182B51EC1A0B00F0F7FCC4E9140153ECA3
:1034A000192B51EC1A0B00F0EFFCC4E91601208A2D
:1034B00000F086FE53EC182B00F096FE06D2207B1F
:1034C00028B92773E08A401CE08200E02673208A36
:1034D00000F076FE94ED121B53EC112B00F084FEED
:1034E0000AD2607B002803D16773208B401C2083A5
:1034F000BDEC068BBDE8F0816673F9E7080000209B
:10350000100000200000000080842E412DE9F041D1
:10351000534D01212846FEF715F9524C0221E07166
:103520002846FEF70FF9207204212846FEF70AF913
:10353000607201214FF09040FEF704F9A072E67925
:1035400042F210724FF47A7166B92378012B09D1D7
:10355000A37953B1012B10D0A36A6433A3628B42C9
:1035600000DDA162277A87B11DE0E38964339BB255
:10357000E3818B42F6D9E181F4E7238A64339BB27D
:1035800023829342EED92282ECE76378012B0AD1A1
:10359000A37993B1012B19D0A16A334B6439A1628D
:1035A000994200DAA36223790021BBB1012B21D01B
:1035B000657ADFF8B8C055B32EE0E189643989B285
:1035C000E1816429EFD26421E181ECE7238A643B45
:1035D0009BB223828B42E6D22182E4E7627A02BB6D
:1035E000A278012A29D1627912B10022627124E005
:1035F0000122FBE7627AA2B9A278012A1DD1A27941
:10360000521CD2B2A271022A17D9A17115E094F806
:1036100002E0BEF1010F05D094F802E055EA0E0574
:1036200003D00AE0CCF8001007E0DCF80050954227
:1036300003D36182A182E182218350B9E278012A19
:1036400007D15B1C6171DAB2A1712271022A00D923
:10365000217126706770617AA170E070BDE8F08119
:10366000000400481000002018FCFFFF2408004060
:103670002DE9F0412DED068BF84CA0462779B8F8DE
:103680001460B8F81250B8F8100000F099FD98EDE9
:10369000100BB7B1012F7CD0022D01D8022E79D9A1
:1036A00053EC102B00F0A0FD75D2208A00F088FDAD
:1036B00094ED121B53EC112B00F096FDF4D28620F2
:1036C000C2E2022D01D8022E2AD953EC102B00F0B1
:1036D0008BFD0BD2208A00F073FD94ED121B53EC8E
:1036E000112B00F081FD01D2872043E0208A00F0F9
:1036F00067FD94ED101B53EC112B00F075FD01D20A
:10370000832037E0208A00F05BFD94ED121B53EC20
:10371000112B00F069FD01D285202BE0812029E0EA
:1037200053EC102B00F060FD0BD2208A00F048FD16
:1037300094ED121B53EC112B00F056FD01D2072023
:1037400018E0208A00F03CFD94ED101B53EC112B87
:1037500000F04AFD01D203200CE0208A00F030FD89
:1037600094ED121B53EC112B00F03EFD01D205200D
:1037700000E0012000F0D4FAB9A11820FFF7C4F846
:1037800060799FEDBDAB9FEDBE9B9FEDBF8A00288A
:1037900002E0D0E02EE247E194ED100B53EC1A2B3F
:1037A00051EC100B04D000F01FFD68D2B7A18EE0E1
:1037B00000F01AFD01D2B5A127E094ED100B53ECF7
:1037C000192B51EC100B00F00FFD94ED100B51EC88
:1037D000100B07D200F0B0FC82B2B2A1B748FCF7E0
:1037E0007BFD11E000F012FB00EE900A80EE880AEB
:1037F00010EE100A00F088FD41EC100BB0A153EC64
:10380000102BAE48FCF768FDAC494820FFF77CF868
:1038100094ED120B53EC1A2B51EC100B00F0E4FC5E
:1038200001D2ADA122E094ED120B53EC192B51EC17
:10383000100B00F0D9FC94ED120B51EC100B04D2DC
:1038400000F07AFC82B2AAA15EE000F0DFFA00EE9E
:10385000900A80EE880A10EE100A00F055FD41EC47
:10386000100BA9A153EC102B61E094496020FFF7E5
:103870004BF8ABA17820FFF747F8A9A10BE294ED34
:10388000140B53EC192B51EC100B00F0ADFC94ED24
:10389000140B51EC100B07D200F04EFC82B2A6A123
:1038A0008648FCF719FD11E000F0B0FA00EE900A2E
:1038B00080EE880A10EE100A00F026FD41EC100B95
:1038C000A3A153EC102B7D48FCF706FD7B49482053
:1038D000FFF71AF894ED120B53EC1A2B51EC100B66
:1038E00000F082FC9DD394ED160B53EC192B51EC98
:1038F000100B00F079FC94ED160B51EC100B07D275
:1039000000F01AFC82B297A16C48FCF7E5FCACE72A
:1039100000F07CFA00EE900A80EE880A10EE100AA1
:1039200000F0F2FC41EC100B94A153EC102B634817
:10393000FCF7D2FC99E7022D01D8022E2AD953ECCC
:10394000102B00F051FC0BD2208A00F039FC94EDD2
:10395000121B53EC112B00F047FC01D2862043E0F0
:10396000208A00F02DFC94ED101B53EC112B00F07D
:103970003BFC01D2822037E0208A00F021FC94ED4C
:10398000121B53EC112B00F02FFC01D284202BE0F2
:10399000802029E053EC102B00F026FC0BD2208A6B
:1039A00000F00EFC94ED121B53EC112B00F01CFCEC
:1039B00001D2062018E0208A00F002FC94ED101BD2
:1039C00053EC112B00F010FC01D202200CE0208AF5
:1039D00000F0F6FB94ED121B53EC112B00F004FCED
:1039E00001D2042000E0002000F09AF968A118201C
:1039F000FEF78AFFE2896CA13048FCF76DFC2F4985
:103A00004820FEF781FF228A6DA12C48FCF764FC58
:103A10002A496020FEF778FF6FA12848A26AFCF7C8
:103A20005BFC2649782037E1208A00F0C9FB94ED41
:103A3000101B53EC112B00F0D7FB01D2822003E1C5
:103A4000208A00F0BDFB94ED121B53EC112B00F00B
:103A5000CBFB01D28420F7E0CAE000001000002078
:103A600020202020202020204441544120202020BC
:103A700020202020000000000000000000000000C6
:103A80000000000000408F4000007A4420202020E9
:103A900020413D4E554C4C2020202020202020202D
:103AA000200000002020202020413D253164487A5C
:103AB0002020202020202020202000005C01002049
:103AC0002020202020413D252E32664B487A2020A0
:103AD00020202020202000002020202020423D4EB9
:103AE000554C4C20202020202020202020000000A9
:103AF0002020202020423D253164487A20202020AB
:103B000020202020202000002020202020423D25B1
:103B10002E32664B487A20202020202020200000D2
:103B20002020202020202020202020202020202095
:103B300020202020000000002020202020413D25C2
:103B400031647553202020202020202020200000D8
:103B50002020202020413D252E32666D532020203C
:103B6000202020002020202020423D253164755354
:103B70002020202020202020202000002020202085
:103B800020423D252E32666D53202020202020002B
:103B90002020202020202020504152412020202081
:103BA0002020202000000000202020202050443D24
:103BB000253164487A202020202020202020000069
:103BC000202020202050483D253164487A202020A4
:103BD0002020202020200000202020202050583DA0
:103BE000253164487A202020202020202020000039
:103BF000802029E053EC102B00F0F6FA0BD2208A3B
:103C000000F0DEFA94ED121B53EC112B00F0ECFAED
:103C100001D2062018E0208A00F0D2FA94ED101BA1
:103C200053EC112B00F0E0FA01D202200CE0208AC4
:103C300000F0C6FA94ED121B53EC112B00F0D4FAED
:103C400001D2042000E0002000F06AF815A118203D
:103C5000FEF75AFE628A19A11E48FCF73DFB1D497A
:103C60004820FEF751FEA28A1BA11A48FCF734FB3C
:103C700018496020FEF748FEE28A1DA11548FCF7AE
:103C80002BFB14497820FEF73FFE228B1EA1114822
:103C9000FCF722FB0F499020BDEC068BBDE8F041FC
:103CA000FEF732BE20202020202020205245434411
:103CB0002020202020202020000000002020202084
:103CC000204E44413D25316420202020202020200A
:103CD000202000005C01002020202020204E4442B3
:103CE0003D2531642020202020202020202000009D
:103CF00020202020204E48413D25316420202020D6
:103D0000202020202000000020202020204E48429B
:103D10003D2531642020202020202020200000008C
:103D200070B5124D044601224FF47F412846FDF73D
:103D30000EFD0F4E012204213046FDF708FD002242
:103D400004213046FDF703FD210200222846FDF73D
:103D5000FEFC012204213046FDF7F9FC3046BDE8A7
:103D6000704000220421FDF7F2BC0000000800486A
:103D7000000C0048FDF7FEFCFFF7ACF9FEF70CFF66
:103D8000FEF774FFFEF7A8FFFEF7DEFF0020FFF747
:103D9000C7FFFEF7FBFD0020FEF752FE4FF6FF7057
:103DA000FEF762FE0020FEF749FD0A48FEF7A8F97B
:103DB00000210948FEF7A8FB00210848FEF7A4FBF4
:103DC000FFF740FBFFF7F4FAFFF7A0FBFFF750FC0B
:103DD000F6E700001001002078000020C400002059
:103DE00010B500290AD00878002807D00548784483
:103DF000FCF750FF002801D0002010BD0248784495
:103E000010BD0000AA180000A218000021F0004216
:103E1000A2F16052B2F5801F01F0004328BFD2F139
:103E20007F6C0BD95FEA001C43EAC20242EB507080
:103E300018BF704728BF20F001007047B2F5801FFF
:103E4000BCBF184670474FEA410C1CF5001F02D258
:103E5000084600F0CFBA70B500F002FA0000008901
:103E6000FFF7F6BF4FF00040A0F580007047491003
:103E700058BFC1F140415B1058BFC3F140438B4272
:103E8000EFF30080704700002DE9C04130B4DFF847
:103E9000A0C23CEA111418BF3CEA131400F0EC80F5
:103EA00081EA03051CEA111444EAD57418BF1CEA20
:103EB000131500F0C780A4EB05044FF0004545EA58
:103EC000C12145EAC32341EA505143EA525304F168
:103ED0007F74994204F500344FEAC0204FEAC222B1
:103EE00008BF904200F09C804FEA13650FF2401625
:103EF000765D4FEA134506FB05F7C7F1807706FBB1
:103F000007F74FEAD737A7FB03687642C8F5803832
:103F1000A7FB06CE38BFA8F1010807FB08E64FF063
:103F2000000EA6FB028CE6FB03CEDCF1000CCEF10A
:103F3000004E38BFAEF1010EA6FB0C584FF0000743
:103F40004FF00005E6FB0E87A1FB08C6A0FB07CEDD
:103F500016EB0E0645F10005E1FB076515F1E04E95
:103F60007EBFA4F580345FEA46066D4116F18007F6
:103F700045F100054FEA17274FEA066647EA05674D
:103F8000A6F1DE46B6F1805F4FEA15251FD9384607
:103F900024F0010C05EBC471BCF1FE6F01EB0C11B8
:103FA00002D8F0BCBDE8008124425CBF01F5801E50
:103FB0009EEAC47F02D4F0BCBDE80081244238D41C
:103FC000F0BCA1F1C041BDE8004100F097B94FEA53
:103FD000D22242EA43524FEAD323A7FB02864FEA9A
:103FE000D02040EA415007FB03661EEA0E0F4FEA5D
:103FF000D12105FB026658BFA6EB0056B6EB005672
:104000004FEA520E4EEAC37E18EB0E0E56EB530EDD
:10401000BDD518EB02085E417F1C55F10005B6E7DF
:104020004FF480154FF000074FF000064FF00008E6
:10403000ADE7F0BC4FF0000001F1C04101F00041DC
:10404000BDE8008111EA0C1F0CEA131500D00CE04A
:1040500013EA0C1F00F025804FF00000F0BC81EA4D
:10406000030101F00041BDE80081F0BCBDE8004162
:1040700081EA030100F042B9F0BCBDE8004170B52F
:1040800000F0EEF8097EFC3E00F007B881EA03017B
:104090004FF0000001F00041704781EA030100F099
:1040A0002DB9F0BCBDE800414FF000002149704738
:1040B000FFFDFBF9F7F5F4F2F0EEEDEBE9E8E6E4ED
:1040C000E3E1E0DEDDDBDAD8D7D5D4D3D1D0CFCD74
:1040D000CCCBCAC8C7C6C5C4C2C1C0BFBEBDBCBBAD
:1040E000BAB9B8B7B6B5B4B3B2B1B0AFAEADACABA8
:1040F000AAA9A8A8A7A6A5A4A3A3A2A1A09F9F9E82
:104100009D9C9C9B9A999998979796959594939333
:10411000929191908F8F8E8E8D8C8C8B8B8A8989CA
:10412000888887878685858484838382828181804D
:104130000000FF070000F87F4FEA1153A3F58063EA
:10414000D3F11E03A8BFD3F1200C08DB4FF00042CF
:1041500042EAC12252EA505232FA03F07047094251
:104160000BD4102BC4BF0020704703F5787CBCF142
:10417000FF3F05D04FF0FF3070474FF00000704711
:1041800070B500F06DF800BF4992248000207047A0
:10419000F0E710F0004248BF4042B0FA80F310FA56
:1041A00003F10AD0C3F11D0303F580634FEA4150C8
:1041B00002EB035202EBD12170474FF00000704731
:1041C000B0FA80F310FA03F10AD0C3F11D0303F52E
:1041D00080634FEA41504FEA035202EBD12170470E
:1041E0004FF000007047000051EA030C17D41CF593
:1041F000801F58BFBCF5801F00F10680994218BF90
:10420000704708BF9042704707D711F5801F58BF0D
:1042100013F5801F19D499427047894270471CF5E5
:10422000801F08D5BCF5801FF7D58B4218BF70479B
:1042300008BF824270474FF4001C1CEB410F38BF8F
:104240001CEB430F01D28B42704770B500F008F8A9
:10425000922449004FF000514FF08053FFF707BE02
:104260000EF1020E2EF0030E5EF8046B364205D4FA
:10427000012A43EB030515F5001F12D8012841EB75
:10428000010C1CF5001F0CD80ED14FEAD17C15F59E
:10429000001F0CEB4C0C0CF1020C08BF4CEBD37C58
:1042A00004E04FF0080C01E04FEAD37C0CEB4C0526
:1042B00026FA05F606F00706B6F1040C06D20EEB58
:1042C000860CBDE870404CF0010C6047DFE80CF054
:1042D000090B02024FF000414FF00000A1F5002150
:1042E00070BD19461046012851EB010418BFD4F5E2
:1042F000001484BF002001F0004170BD0808A0F543
:1043000000114FEA3101704743004FEAD30C4FEAE6
:104310003C0C43401FBF40070CF1605113F0FE4FAF
:1043200070471CF0006F03D100200CF00041704773
:104330000CF0004343EA507010B540EACC0000F0A6
:104340000EF800BF000000924FEA0001FFF7D6BF51
:104350004FF000414FF00000A1F5002170470EF131
:10436000020E2EF0030E5EF8044B244204D44FEAF2
:104370004102B2F17F4F11D84FEA4003B3F17F4FB2
:104380000CD80ED14FEAD07CB2F17F4F0CEB4C0C25
:104390000CF1020C08BF4CEBD17C04E04FF0080C90
:1043A00001E04FEAD17C0CEB4C0324FA03F404F057
:1043B0000704B4F1040C06D20EEB840CBDE81040E7
:1043C0004CF0010C6047DFE80CF0070802024FF0E8
:1043D0000040A0F5800010BD0846420018BFD2F191
:1043E000807288BF00F0004010BD4FF04070E1EED9
:1043F000100A7047FF2141EAD050C0057047FCF712
:10440000C6B9000000000000000001020304060716
:10441000080900000000000000000000000000008B
:10442000000000000000000000000000000000008C
:10443000000000000000000000000000000000007C
:104440000000000080018001800180018001800166
:1044500080018001800180018001800180010000D5
:10446000000080018001000000000000000000004A
:10447000000000000000CC00CC00CC00CC00CC0040
:10448000CC00000000000000000000000000000060
:10449000000000000000000000000000000000001C
:1044A0000000000000000000000000000000600CA0
:1044B000600C600C30063006FE1FFE1F3006380709
:1044C0001803FE1FFE1F180318038C018C018C01BA
:1044D000000000008000E003F80F9C0E8C1C8C187C
:1044E0008C009800F801E007800E801C8C188C1856
:1044F0009C18B80CF00FE003800080000000000062
:1045000000000000000000000E181B0C110C11062A
:104510001106110311039B018E01C038C06C604469
:104520006044304430441844186C0C3800000000DB
:1045300000000000E001F0033807180618063003F9
:10454000F001F000F8009C310E33061E061C061C1C
:10455000063FFC73F0210000000000000000000096
:104560000000000000000C000C000C000C000C000F
:104570000C0000000000000000000000000000002F
:10458000000000000000000000000000000000002B
:1045900000000000000200038001C000C0006000B5
:1045A000600030003000300030003000300030005B
:1045B000300060006000C000C00080010003000205
:1045C0000000000020006000C000800180010003A6
:1045D00000030006000600060006000600060006AE
:1045E00000060003000380018001C000600020007D
:1045F0000000000000000000000000000000C000FB
:10460000C000D806F807E0013003380700000000BA
:10461000000000000000000000000000000000009A
:104620000000000000000000000000000000800109
:104630008001800180018001FC3FFC3F80018001FE
:1046400080018001800100000000000000000000E7
:10465000000000000000000000000000000000005A
:10466000000000000000000000000000000000004A
:1046700000000000800180010001000180000000B6
:10468000000000000000000000000000000000002A
:1046900000000000000000000000E007E00700004C
:1046A000000000000000000000000000000000000A
:1046B00000000000000000000000000000000000FA
:1046C00000000000000000000000000000000000EA
:1046D00000000000C000C00000000000000000005A
:1046E00000000000000C000C00060006000600039D
:1046F000000300038003800180018001C000C0002E
:10470000C000600060000000000000000000000029
:1047100000000000E003F007380E180C0C180C180D
:104720000C180C180C180C180C180C180C18180C69
:10473000380EF007E0030000000000000000000059
:104740000000000000018001C001F0019801880113
:104750008001800180018001800180018001800151
:1047600080018001800100000000000000000000C6
:1047700000000000E003F80F180C0C180C180018CB
:104780000018000C000600038001C000600030002B
:104790001800FC1FFC1F00000000000000000000CB
:1047A00000000000E001F807180E0C0C0C0C000CC7
:1047B0000006C003C007000C001800180C180C18E5
:1047C000180CF807E00300000000000000000000E3
:1047D00000000000000C000E000F000F800DC00C48
:1047E000600C600C300C180C0C0CFC3FFC3F000CF7
:1047F000000C000C000C0000000000000000000095
:1048000000000000F80FF80F180018000C00EC036F
:10481000FC071C0E001C0018001800180C181C0CBB
:10482000180EF807E0030000000000000000000080
:1048300000000000C007F00F381C181818000C000A
:10484000CC03EC0F3C0E1C1C0C180C180C18181C7C
:10485000380EF007E0030000000000000000000038
:1048600000000000FC1FFC1F000C000600060003F7
:1048700080038001C001C000E000600060007000A3
:104880003000300030000000000000000000000098
:1048900000000000E003F007380E180C180C180C8C
:1048A0003806F007F007180C0C180C180C180C1828
:1048B000380CF80FE00300000000000000000000CA
:1048C00000000000E003F007380E1C0C0C180C1858
:1048D0000C181C1C381EF81BE0190018000C000CEA
:1048E0001C0EF807F00100000000000000000000AE
:1048F0000000000000000000000000000000800137
:104900008001000000000000000000000000000026
:104910000000800180010000000000000000000095
:104920000000000000000000000000000000800106
:1049300080010000000000000000000000000000F6
:1049400000008001800100010001800000000000E3
:104950000000000000000000000000000000000057
:1049600000000010001C800FE003F8001800F800A1
:10497000E003800F001C0010000000000000000099
:104980000000000000000000000000000000000027
:104990000000F81F000000000000F81F00000000E9
:1049A0000000000000000000000000000000000007
:1049B00000000000000000000000000000000000F7
:1049C000000008003800F001C007001F0018001F99
:1049D000C007F001380008000000000000000000DF
:1049E00000000000E003F80F180C0C180C18001859
:1049F000000C000600038001C000C000C0000000E1
:104A00000000C000C0000000000000000000000026
:104A1000000000000000E00718180420C229224A04
:104A2000114409440944094409221113E20C0240CB
:104A300004201818E007000000000000000000003B
:104A40000000000080038003C006C006C006600CA2
:104A5000600C301830183018F83FF83F1C700C60AC
:104A60000C6006C006C0000000000000000000004E
:104A700000000000FC03FC0F0C0C0C180C180C18A8
:104A80000C0CFC07FC0F0C180C300C300C300C30EC
:104A90000C18FC1FFC0700000000000000000000D4
:104AA00000000000C007F01F38381C300C70066092
:104AB00006000600060006000600060006600C70F0
:104AC0001C30F01FE00700000000000000000000A4
:104AD00000000000FE03FE0F060E06180618063042
:104AE0000630063006300630063006300618061846
:104AF000060EFE0FFE030000000000000000000094
:104B000000000000FC3FFC3F0C000C000C000C00FF
:104B10000C00FC1FFC1F0C000C000C000C000C0017
:104B20000C00FC3FFC3F0000000000000000000003
:104B300000000000F83FF83F1800180018001800A7
:104B40001800F81FF81F18001800180018001800A7
:104B5000180018001800000000000000000000000D
:104B600000000000E00FF83F3C780E6006E007C050
:104B70000300030003FE03FE03C007C006C00EC00F
:104B80003CF0F83FE00F00000000000000000000D3
:104B9000000000000C300C300C300C300C300C30AD
:104BA0000C30FC3FFC3F0C300C300C300C300C3027
:104BB0000C300C300C300000000000000000000041
:104BC00000000000800180018001800180018001DF
:104BD00080018001800180018001800180018001CD
:104BE0008001800180010000000000000000000042
:104BF0000000000000060006000600060006000691
:104C00000006000600060006000600061806180644
:104C10003807F003E0010000000000000000000081
:104C20000000000006300618060C06060603860182
:104C3000C60066007600DE008E0106030606060C3E
:104C400006180630066000000000000000000000AA
:104C500000000000180018001800180018001800C4
:104C60001800180018001800180018001800180084
:104C70001800F81FF81F00000000000000000000EE
:104C8000000000000EE01EF01EF01EF036D836D8F0
:104C900036D836D866CC66CC66CCC6C6C6C6C6C6BE
:104CA000C6C686C386C300000000000000000000E6
:104CB000000000000C301C303C303C306C306C305C
:104CC000CC30CC308C310C330C330C360C360C3CE5
:104CD0000C3C0C380C30000000000000000000000C
:104CE00000000000E007F81F1C380E70066003C0CB
:104CF00003C003C003C003C003C003C006600E703E
:104D00001C38F81FE0070000000000000000000051
:104D100000000000FC0FFC1F0C380C300C300C3075
:104D20000C300C18FC1FFC070C000C000C000C00D5
:104D30000C000C000C00000000000000000000004F
:104D400000000000E007F81F1C380E70066003E04A
:104D500003C003C003C003C003C007E006630E3FE7
:104D60001C3CF83FE0F700C000000000000000001D
:104D700000000000FE0FFE1F063806300630063029
:104D80000638FE1FFE0706030606060C0618061860
:104D90000630063006600000000000000000000041
:104DA00000000000E003F80F1C0C0C180C180C009D
:104DB0001C00F803E00F001E0038063006300E30ED
:104DC0001C1CF80FE00700000000000000000000BD
:104DD00000000000FE7FFE7F8001800180018001D5
:104DE00080018001800180018001800180018001BB
:104DF0008001800180010000000000000000000030
:104E0000000000000C300C300C300C300C300C303A
:104E10000C300C300C300C300C300C300C300C30B2
:104E20001818F81FE0070000000000000000000054
:104E30000000000003600630063006300C180C1825
:104E40000C18180C180C380E30063006700760036A
:104E50006003C001C001000000000000000000006D
:104E6000000000000360C361C361C3616633663341
:104E700066336633663366336C1B6C1B6C1B2C1AF3
:104E80003C1E380E380E000000000000000000003C
:104E9000000000000FE00C7018303018700C600E2D
:104EA000C00780038003C003E006700C301C181894
:104EB0000C300E6007E00000000000000000000061
:104EC0000000000003C006600C301C383818300C9D
:104ED0006006E007C003800180018001800180013D
:104EE000800180018001000000000000000000003F
:104EF00000000000FC7FFC7F006000300018000C08
:104F0000000600038001C0006000300018000C00A3
:104F10000600FE7FFE7F0000000000000000000091
:104F200000000000E003E00360006000600060003B
:104F30006000600060006000600060006000600071
:104F4000600060006000600060006000E003E0035B
:104F50000000000030003000600060006000C00011
:104F6000C000C000C0018001800180010003000377
:104F70000003000600060000000000000000000022
:104F800000000000E003E00300030003000300034F
:104F900000030003000300030003000300030003F9
:104FA000000300030003000300030003E003E00329
:104FB000000000000000C001C00160036003600346
:104FC00030063006180C180C00000000000000002D
:104FD00000000000000000000000000000000000D1
:104FE00000000000000000000000000000000000C1
:104FF00000000000000000000000000000000000B1
:1050000000000000FFFFFFFF0000000000000000A4
:10501000000000000C000C000C000C000C000C0048
:105020000000000000000000000000000000000080
:105030000000000000000000000000000000000070
:105040000000000000000000000000000000F0036D
:10505000F8071C0C0C0C000FF00FF80C0C0C0C0CCF
:105060001C0FF80FF0180000000000000000000006
:105070000000000018001800180018001800D803DD
:10508000F80F380C181818181818181818181818B5
:10509000380CF80FD80300000000000000000000EA
:1050A0000000000000000000000000000000C0033D
:1050B000F007300E180C1800180018001800180C13
:1050C000300EF007C00300000000000000000000E8
:1050D0000000000000180018001800180018C01B7D
:1050E000F01F301C18181818181818181818181845
:1050F000301CF01FC01B000000000000000000007A
:105100000000000000000000000000000000C003DC
:10511000F00F300C1818F81FF81F18001800381876
:10512000301CF00FC007000000000000000000006D
:1051300000000000800FC00FC000C000C000F007DA
:10514000F007C000C000C000C000C000C000C00028
:10515000C000C000C000000000000000000000000F
:105160000000000000000000000000000000E00D52
:10517000F80F180E0C0C0C0C0C0C0C0C0C0C0C0C72
:10518000180EF80FE00D000C0C0C1C06F807F001CF
:105190000000000018001800180018001800D807B8
:1051A000F80F381C18181818181818181818181884
:1051B000181818181818000000000000000000005F
:1051C00000000000C000C000000000000000C0009F
:1051D000C000C000C000C000C000C000C000C000CF
:1051E000C000C000C000000000000000000000007F
:1051F00000000000C000C000000000000000C0006F
:10520000C000C000C000C000C000C000C000C0009E
:10521000C000C000C000C000C000C000F80078009E
:10522000000000000C000C000C000C000C000C0C2A
:105230000C060C038C01CC006C00FC009C018C0360
:105240000C030C060C0C0000000000000000000025
:1052500000000000C000C000C000C000C000C000CE
:10526000C000C000C000C000C000C000C000C0003E
:10527000C000C000C00000000000000000000000EE
:1052800000000000000000000000000000007C3C66
:10529000FF7EC7E383C183C183C183C183C183C14F
:1052A00083C183C183C10000000000000000000032
:1052B000000000000000000000000000000098074F
:1052C000F80F381C18181818181818181818181863
:1052D000181818181818000000000000000000003E
:1052E0000000000000000000000000000000C003FB
:1052F000F00F300C18181818181818181818181853
:10530000300CF00FC003000000000000000000009F
:105310000000000000000000000000000000D803B2
:10532000F80F380C18181818181818181818181812
:10533000380CF80FD80318001800180018001800CF
:105340000000000000000000000000000000C01B82
:10535000F01F301C181818181818181818181818D2
:10536000301CF01FC01B001800180018001800188F
:105370000000000000000000000000000000B00776
:10538000F00370003000300030003000300030009A
:10539000300030003000000000000000000000007D
:1053A0000000000000000000000000000000E0031A
:1053B000F003380E180C3800F003C007000C180C6E
:1053C000380EF007E00300000000000000000000BD
:1053D0000000000000008000C000C000C000F00716
:1053E000F007C000C000C000C000C000C000C00086
:1053F000C000C0078007000000000000000000009F
:10540000000000000000000000000000000018186C
:10541000181818181818181818181818181818180C
:10542000381CF01FE0190000000000000000000020
:1054300000000000000000000000000000000C1848
:10544000180C180C180C3006300630066003600388
:105450006003C001C0010000000000000000000067
:105460000000000000000000000000000000C1413A
:10547000C141C36163636363636336363636363670
:105480001C1C1C1C1C1C0000000000000000000074
:1054900000000000000000000000000000001C38B8
:1054A000381C300C60066003600360036003600614
:1054B000300C381C1C380000000000000000000008
:1054C0000000000000000000000000000000183094
:1054D000301830187018600C600CE00CC006C00664
:1054E00080038003800380018001C001F000700010
:1054F0000000000000000000000000000000FC1F91
:10550000FC1F000C000600038001C000600030009A
:105510001800FC1FFC1F000000000000000000003D
:105520000000000000038001C000C000C000C000F7
:10553000C000C00060006000300060004000C0009B
:10554000C000C000C000C000C00080010003000017
:105550000000000080018001800180018001800145
:105560008001800180018001800180018001800133
:105570008001800180018001800180018001800123
:10558000000000006000C000C001800180018001B7
:105590008001800100030003000600030001800178
:1055A00080018001800180018001C0006000000056
:1055B00000000000000000000000000000000000EB
:1055C0000000F010F81F080F0000000000000000AD
:1055D00000000000000000000000000000000000CB
:1055E0000000000002400000000000A000000000D9
:1055F00005400000000000C8000000000C40000052
:105600000000409C00000000194000000020BCBECB
:105610000000000034400000BFC91B8E00000004E1
:10562000B5400000504BCFD06607E2CF010000002C
:105630006C4100003E8251AADFEEA7340100000059
:10564000D9420000DCB5A0E23A301F97FFFFFFFF10
:10565000B4450000FD25A0C8E9A3C14FFFFFFFFF2F
:10566000FF3F00000000008000000000FF3F00003E
:105670000000008000000000B45600080000002078
:1056800078000000140200082C5700087800002061
:1056900060070000300200081C000000430000000A
:1056A000F8FFFFFF0C0000000E0000000F000000DC
:1056B0002E000000100000000100000000000000AB
:1056C0000024F400010101010000000000000000BE
:1056D0000000E80388130000000000000000000044
:1056E00000000000000000000000000000000000BA
:1056F00000000000000000000000000000000000AA
:105700000000000000000000000000000000000099
:105710000000000000000000000000000000000089
:0C572000000000000000FFFF000000007F
:04000005080001D915
:00000001FF
