:020000040800F2
:10000000B007002099020008AF350008612E0008F3
:10001000AD350008A3150008FD48000800000000E9
:100020000000000000000000000000006939000826
:10003000A515000800000000B13500086B39000864
:10004000B3020008B3020008B3020008B3020008BC
:10005000B3020008B3020008B3020008B3020008AC
:10006000B3020008B3020008B3020008B30200089C
:10007000B3020008B3020008B3020008B30200088C
:10008000B302000800000000B3020008B302000839
:10009000B3020008B3020008B3020008B30200086C
:1000A000B3020008B3020008B3020008B30200085C
:1000B000B3020008B3020008B3020008B30200084C
:1000C000B3020008B3020008B3020008B30200083C
:1000D000B3020008F1480008B3020008B3020008A8
:1000E000B3020008B3020008B3020008B30200081C
:1000F000B3020008B3020008B302000800000000C9
:1001000000000000B302000800000000B302000875
:10011000B302000800000000B3020008B3020008A8
:10012000B3020008B3020008B3020008B3020008DB
:10013000B30200080000000000000000B302000845
:10014000B3020008B3020008000000000000000035
:10015000000000000000000000000000000000009F
:10016000000000000000000000000000B3020008D2
:10017000B3020008000000000000000000000000C2
:1001800000000000B30200080000000000000000B2
:10019000000000000000000000000000000000005F
:1001A0000000000000000000B3020008B3020008D5
:1001B000B3020008B3020008B30200080000000008
:1001C00000000000B3020008000000000000000072
:1001D000B3020008B302000800F002F800F04CF887
:1001E0000AA090E8000C82448344AAF10107DA4592
:1001F00001D100F041F8AFF2090EBAE80F0013F098
:10020000010F18BFFB1A43F001031847786600007E
:1002100098660000103A24BF78C878C1FAD852070F
:1002200024BF30C830C144BF04680C607047000070
:100230000023002400250026103A28BF78C1FBD8EF
:10024000520728BF30C148BF0B607047662905F0D0
:10025000C481642900F0F480002070471FB505F0C8
:10026000B2F900F061FC04000020002104F00CFF52
:10027000E0601FBD10B510BD00F056FD1146FFF740
:10028000EDFF04F07FFE00F074FD03B4FFF7F2FF12
:1002900003BC00F0B7FD000009488047094800474B
:1002A000FEE7FEE7FEE7FEE7FEE7FEE7FEE7FEE726
:1002B000FEE7FEE704480549054A064B7047000083
:1002C000D5390008D9010008B0010020B00700208E
:1002D000B0030020B003002053EA020C00F0698054
:1002E0002DE9F04B4FF00006002B1FBFB3FA83F54A
:1002F00003FA05F424FA05F65E4012BF1643B2FA7B
:1003000082F502FA05F4C5F120051EBF22FA05FCAC
:1003100044EA0C04203556EA044C4FEA144418BF52
:10032000641C4FF000084FF00009904271EB030C81
:1003300039D3002919BFB1FA81F701FA07F6B0FAEB
:1003400080F700FA07F6C7F120071EBF20FA07FC66
:1003500046EA0C062037B6FBF4FCA7EB0507103F76
:1003600007F01F0BCBF120060CFA0BFB2CFA06F65C
:1003700044BFB3460026202FA4BF5E464FF0000BBB
:100380005BEA060C08BF4FF0010B19EB0B09ABFB46
:10039000027C48EB0608C01B06FB02CC0BFB03CC1F
:1003A00071EB0C01C1E70B46024641464846BDE8E9
:1003B000F08B13B54FF000004FF00001AFF3008059
:1003C000BDE81C40704700000FB41CB5074B06AADF
:1003D0007B4469460090059800F08DFB002069463B
:1003E00000F09CFB1CBC5DF814FB000049070000FA
:1003F00070B5044685690068C10601D5302600E065
:100400002026C00707D070BDD4E9012130469047AF
:10041000206A401C20626D1EF6D570BD70B5044682
:1004200085690078C00707D170BDD4E9012120207B
:100430009047206A401C20626D1EF6D570BD0000FA
:100440002DE9F0410646002410687529314616A5AD
:1004500010D0AFF30080002802DA404213A507E075
:1004600031688A0701D512A502E0490704D511A514
:10047000012401E0AFF3008000210A2206F12407E5
:1004800009E0B0FBF2FCB0FBF2F302FB1C003030E1
:1004900078541846491C0028F3D123462A46304692
:1004A000BDE8F04100F0B9B8000000002D000000E8
:1004B0002B000000200000002DE9F0474FF0000A5B
:1004C00089460446C0F820A02046E16888470028F5
:1004D00076D0252806D0D4E901219047206A401C17
:1004E0002062F1E7E168204600258847C4F81CA097
:1004F00006460027C4F818A02A2E09D0304604F07A
:1005000026FA38B304EB8708303EC8F8186019E0C3
:1005100059F8041B204604EB87029161E168884783
:10052000012F064618D1E069002820DA25F02005C1
:100530001DE0D8F8180000EB800006EB40003038D2
:10054000C8F818002046E1688847064604F0FFF91D
:100550000028EED1012F0AD02E2E08D12046E168C6
:1005600088477F1C0646022F45F02005C4DBA069A2
:10057000002803DA404245F00105A061E80701D0F8
:1005800025F01005B6B1A6F14100192802D8203691
:1005900045F400654A463146204625604D46FFF742
:1005A00055FE58B1012806D0ED1D25F0070000F1D9
:1005B000080989E704E005F1040985E730468AE780
:1005C000206ABDE8F0874FF0000200B5134694465C
:1005D0009646203922BFA0E80C50A0E80C50B1F19B
:1005E0002001BFF4F7AF090728BFA0E80C5048BFAF
:1005F0000CC05DF804EB890028BF40F8042B08BF4D
:10060000704748BF20F8022B11F0804F18BF00F848
:10061000012B70477047704770472DE9F0470D4632
:1006200099469246044600F124080168880604D5DC
:10063000E06921F01001216000E00120A84201DD05
:10064000471B00E00027A1697A1902EB0900081A8C
:10065000A0612078C00602D42046FFF7C9FE00261C
:1006600008E0D4E901211AF806009047206A401CEE
:10067000761C20624E45F4DB2078C0060AD5204661
:10068000FFF7B6FE06E0D4E9012130209047206A4A
:10069000401C2062381EA7F10107F4DC07E0D4E912
:1006A000012118F805009047206A401C2062281E8E
:1006B000A5F10105F3DC2046FFF7B0FE2078000627
:1006C00002D50220BDE8F0870120FBE770472DE945
:1006D000FF4F0C461E464FF0FF378BB0D2E90001AA
:1006E000DDF860800A908A46C1F30A5505B93D4697
:1006F000002108464FF00000BAF1000F00F440005E
:1007000005DA00EB80004FF4400101EA50004FEAA7
:100710009059B9F1010F00DDB9460A9850EA4A0034
:100720000ED044F61050A5F2FF3545432F14B8F112
:10073000000F1ED07542291E1EDDC9F100021CE00B
:10074000B8F1010F4FF0000001D0302103E0F24377
:1007500005E02154401CB042FBDB30460022002162
:1007600021540B99C1F80880C1E900200FB0BDE801
:10077000F08FBD1B6D1CDEE74A4600DA694206A811
:1007800000F05CFA06AB93E8070003AB83E80700D0
:1007900050460A9900F03DFB8DE80700A0F5005097
:1007A0001F3800900398002D0ADD42F21F014A46CF
:1007B0000844002303A90390684600F0A6FD09E061
:1007C000A0F500504A461F38002303A9039068464D
:1007D00000F0B0FD8DE807000004000C03D04FF0DE
:1007E000FF30410800E01046B8F1000F03D00022AE
:1007F000009215461EE0751E05D400F099F93032BE
:1008000062556D1EF9D5B3460122084302D000227D
:100810007F1C04E02078302801D100227F1E002AAE
:10082000099784D01DE0112D07DA00F081F93032EC
:1008300062556D1C50EA0102F5D1084302D00098C0
:10084000C8B10EE00021681E05E0235C625C6354C1
:100850002254401E491C8142F7DBAB46A81B401EB8
:100860000990002004F80B000B98099AC0F8088042
:10087000C0E9002B7AE711264FF0000857E72DE971
:10088000F04F88460446D21D22F0070191B0D1E90D
:100890000001CDE90A0104F032F802460B98C00FBE
:1008A00001D02D2007E02068810701D52B2002E030
:1008B000202101EAC000032A099001D0072A05DBA4
:1008C00003464146204600F079F90BE12078800686
:1008D00001D5E06900E00620B8F1650F814606D039
:1008E000B8F1660F18D0B8F1670F70D131E0002071
:1008F000B9F1110F009001DB112301E009F10103AF
:100900000AAA01A90CA8FFF7E2FEDDE90C70002697
:1009100009F10105834647E001204B4600904FF066
:1009200000470AAA01A90CA8FFF7D1FEDDE90DB026
:100930000C995D46002610B909F101000D18B9EBBC
:10094000050003D4C0F1FF3609F10105A5EB09004C
:100950002BE0B9F1010F01DA4FF001090020B9F1E4
:10096000110F0090484601DD112300E003460AAA5A
:1009700001A90CA8FFF7ABFEDDE90C704D4600267F
:100980008346207800070AD4AB4500DA5D4601A80B
:10099000012D04DD411911F8011C302907D04F4504
:1009A00002DA17F1040F04DA012082460FE06D1E0F
:1009B000EEE7002F02DCED1B3E4403E0781CA8426A
:1009C00000DD7D1CB81B00F1010A4FF000472078C4
:1009D000000703D4AA4501DB4FF0FF3A0021B7F12D
:1009E000004F0DF143088DF8431024D002202B2333
:1009F000002F01DA7F422D230A21021EA0F10100FF
:100A000000DC5FB197FBF1FC97FBF1F201FB1C7C72
:100A100017460CF1300C08F801CDEEE7A8F1010003
:100A200003702188090501D5452100E06521A0F169
:100A3000010800F8011C09980FA9A1EB0807FF1D88
:100A400000B10120411901EBEA70A1693844081A8C
:100A5000401EA0612078C00602D42046FFF7C8FCE3
:100A6000099828B1D4E901219047206A401C2062EE
:100A70002078C00622D52046FFF7BAFC1EE0002EE3
:100A800004DBB34502DD01A8805D00E03020D4E93D
:100A900001219047206A401C2062761CAAF10100C7
:100AA0005FEA000A0AD100F03FF8C0680168405CC4
:100AB000D4E901219047206A401C2062281EA5F13C
:100AC0000105DCDC07E0D4E9012118F8010B9047AF
:100AD000206A401C2062381EA7F10107F3DC204683
:100AE000FFF79CFC032011B041E6000001694A1C9D
:100AF00002610878704700B58FB0CDE9013100215F
:100B0000059105497944CDE9031011466846FFF780
:100B1000D3FC0FB000BD0000E5FFFFFF0A6802F83C
:100B2000010B0A6070470000004870477001002008
:100B300030B5B0F10A024FEA900E71F100034EEAAF
:100B4000817EB0EB0E0061EB91014FEA101E4EEA80
:100B5000017E10EB0E0041EB11114FEA102E4EEA10
:100B6000016E10EB0E0041EB11214FEA104E4EEAE0
:100B7000014E10EB0E0041EB1141401841F1000114
:100B80004FEAD00040EA41704FEAD10110EB8005F6
:100B90004FEA810444EA907444EB01046D1944EB7C
:100BA0000404521BA3414FF0000348BF0A3200D592
:100BB00030BD401C41F1000130BD00002DE9F04185
:100BC0001F46044603260168072A01F4006004DB7F
:100BD00008B116A505E016A503E008B115A500E0CB
:100BE00015A521F010002060A069C01EA0610FB102
:100BF000401EA0612046FFF7FBFB4FB1D4E9012165
:100C000038469047206A401C2062C01C206206E0E3
:100C1000206AFAE7D4E9012115F8010B9047761E06
:100C2000F8D22046FFF7FAFBBDE8F0814E414E00B6
:100C30006E616E00494E4600696E66002DE9F04710
:100C4000814616468AB0354878440DC88DE80D00B7
:100C500032487844801C03AC0DC884E80D0041F68E
:100C60009B300844372190FBF1F290FBF1F5A5F1A0
:100C7000800501FB12041B3C02D56442012000E008
:100C80000020DFF898A080460027FA44AAF1BE0AA7
:100C90000EE0E0070AD03246684607EB4701012321
:100CA0000AEB810100F046FB8DE8070064107F1C11
:100CB000002CEED1194F7F44AE3F19E0E80715D064
:100CC00007EB04100DF1180A90E80E008AE80E00F8
:100CD000C068F04201D1981908903246012306A954
:100CE00003A800F027FB03AB83E807006D10641C2A
:100CF000002DE3D14FF0010332466946B8F1000FF1
:100D000003A802D000F001FB01E000F013FBC9E9E9
:100D10000001C9F808200AB0BDE8F087205C000097
:100D200000487047500100207546FFF7F9FFAE46B6
:100D300005006946534620F00700854618B020B5E7
:100D4000FFF7B8FABDE820404FF000064FF000076B
:100D50004FF000084FF0000B21F00701AC46ACE863
:100D6000C009ACE8C009ACE8C009ACE8C0098D46D0
:100D7000704710B50446AFF300802046BDE8104030
:100D8000FFF783BA4FF0013C50F8042B51F8043BB5
:100D90009A4221D1A2EB0C03934313EACC1317D14F
:100DA00050F8042B51F8043B9A4215D1A2EB0C03E6
:100DB000934313EACC130BD150F8042B51F8043BA6
:100DC0009A4209D1A2EB0C03934313EACC13DBD074
:100DD0004FF00000704700BFD01A01BAB1FA81F19C
:100DE00001F0180122FA01F0CB40C1F12001DBB281
:100DF000C0B2C01A2CFA01F3D11A914311EAC311FF
:100E0000E6D1704701491820ABBEFEE7260002007C
:100E100070475FEA400C08BF91F0000F4FEA8C2347
:100E20004FEAC12243EA51514FEA1C5018BF00F566
:100E3000F0404FEA300018BF41F000415FEA6C5CBF
:100E400000F02980BCF1FF3F08BF40F080407047B0
:100E5000130C06BF12044FF0100C4FF0000C130ED1
:100E600004BF12020CF1080C130F04BF12010CF1A5
:100E7000040C930F04BF92000CF1020CD30F04BFBB
:100E800052000CF1010C11464FF00002A0F11F00BE
:100E9000A0EB0C00704711F0004F08BF704731F015
:100EA00000413FF4D5AF0B0C06BF09044FF0100C06
:100EB0004FF0000C0B0E04BF09020CF1080C0B0FD5
:100EC00004BF09010CF1040C8B0F04BF89000CF165
:100ED000020CCB0F04BF49000CF1010CCCF1200334
:100EE000A0EB0C0022FA03F302FA0CF241EA030130
:100EF00000F10100704720F07F4C80EA030023F0EE
:100F00007F47ACEB070303F57C5300F0004003F18F
:100F1000FF032DE980494FEA154B09B44FEA14430A
:100F200025EA0B4E24EA03480FF2042606EB1327AA
:100F300049083E785FEA320203FB0667C7F50007FF
:100F400007FB06F64FEA54374FEAD64606F102068B
:100F500007FB066CCCF1005C4FEA1C472CEA074CFF
:100F600007FB06F40CFB06F504EB15464FEA961654
:100F700034BF00204FF000404FEAD13706FB07FC9A
:100F80004FEA1C4C0CFB0BF7D21B03FB0CF761EB7D
:100F900007010CFB0EF7B0EB074072EB17420CFB9E
:100FA00008F734BFA2EB0742B2EB074261EB1741EF
:100FB0004FEA0C444FEA910706FB07FC4FEA1C4C32
:100FC0000CFB0BF7B0EBC74072EB573203FB0CF78F
:100FD00034BFA2EBC742B2EBC74261EB57310CFB07
:100FE0000EF7B0EBC70072EB57720CFB08F734BF7B
:100FF000A2EBC702B2EBC70261EB5771039F4FEA46
:10100000816141EA921104EBCC044FEAD1374FEAF7
:10101000826206FB07FC42EA90124FEA80604FEAC8
:101020001C4C0CFB0BF7D21B03FB0CF761EB07010D
:101030000CFB0EF7B0EB074072EB17420CFB08F706
:1010400034BFA2EB0742B2EB074261EB17414FEA14
:101050008C554FEA910704EB9C2406FB07FC4FEAF2
:101060001C4C0CFB0BF7B0EBC74072EB573203FB89
:101070000CF734BFA2EBC742B2EBC74261EB57316A
:101080000CFB0EF7B0EBC70072EB57720CFB08F7C6
:1010900034BFA2EBC702B2EBC70261EB577115EB8D
:1010A0004C254FEA816141EA92114FEA82624FEA90
:1010B000D13742EA901206FB07FC44F100044FEAE4
:1010C00080604FEA1C4C0CFB0BF7D21B03FB0CF7A8
:1010D00061EB07010CFB0EF7B0EB074072EB174218
:1010E0000CFB08F734BFA2EB0742B2EB074261EBFF
:1010F000174115EB1C154FEA813141EA92414FEA45
:10110000823242EA90424FEA80304FEA0C7644F154
:10111000000448EA03434EEA0B484FF0000EB2EBDE
:10112000080C71EB030724BF624639464EEB0E0EE6
:101130004FF0000B0018524149414BEB0B0BB2EB47
:10114000080C71EB03077BF1000B24BF62463946A4
:101150004EEB0E0E4FF0000B0018524149414BEB85
:101160000B0BB2EB080C71EB03077BF1000B24BFF8
:10117000624639464EEB0E0E51EA020718BF46F0A2
:10118000010616EB0E7655F1000254F1000103D56D
:10119000BDE88901BDE80088BDE88901BDE80048D7
:1011A000B619524141EB0101A3F101037047808060
:1011B0007F7E7D7C7B7A79787776767574737271B1
:1011C00071706F6E6E6D6C6C6B6A6A696868676669
:1011D00066656464636362616160605F5F5E5E5DFB
:1011E0005D5C5C5B5B5A5A5959585857575656556F
:1011F00055555454535352525251515050504F4FD1
:101200004F4E4E4D4D4D4C4C4C4B4B4B4A4A4A4920
:101210004949484848474747474646464545454463
:101220004444444343434342424242414141002BF0
:101230009C4630D477002BD01CB54FEA370703B457
:101240004FF010004FF01001BAF1000F06D0BCF1C2
:10125000000FDCBF40F0080040F008014FF0000034
:101260000FBCBDE810400BF1010BBBF1010F08BF33
:101270005FEA170722BF12F1010211F101014FF0DD
:10128000004143F1000300F0004043EA00007047D2
:10129000F9D35708D0E746EA064613F1400F4FEA64
:1012A00016461FDD13F1200FDFBF16430A4600214B
:1012B00020335B42BED0C3F1200746EA064602FA5D
:1012C00007F74FEA164646EA0706C3F1200722FA57
:1012D00003F201FA07F721FA03F14FF0000342EAA3
:1012E0000702A7E746EA020646EA06464FEA16461E
:1012F00046EA0106BCBF46EA0646360C4FF000033C
:101300004FF000024FF0000194E72DE9804C9A461F
:10131000934670B491E8380007C831EA400C48BFE2
:1013200034EA430C03D5FFF7E6FDFFF780FFF0BC7E
:10133000BDE8008C2DE9804C9A46934670B491E844
:10134000380007C810F0804F08BF13F0804F03D15A
:1013500000F005F8FFF76BFFF0BCBDE8008C20F053
:101360007F4780EA030023F07F4C07EB0C03A3F5D3
:101370007C5300F00040A3F1FE0392F0000F00F058
:10138000B38095F0000F00F077802DE901494FEA16
:1013900011404FEA144621EA004800FB06FC24EA0B
:1013A000064708FB06F607FB08F800FB07F718EBF3
:1013B00006484CEB164C4FEA124B18EB07484FEA25
:1013C00015464CEB174022EA0B4E0BFB06FC25EAB8
:1013D00006470EFB06F607FB0EFE0BFB07F71EEBA0
:1013E000064E4CEB164C4FF000061EEB074E4CEB36
:1013F000174B18EB0B0840F1000018EB0E0B58EBE5
:10140000000840F100008F1A4FF000013CBFC943B3
:10141000661B14BFB5EB040C00213CBFC943F61B8F
:101420004FEA17444EEA8E0E27EA04454FEA1C475E
:1014300004FB07622CEA074C05FB07F70CFB05F6DB
:1014400004FB0CFC16EB074642EB174216EB0C466E
:1014500042EB1C421BEB060658EB0202414146EAF6
:101460009E0601D5BDE80189B619524141EB010143
:10147000A3F10103BDE801894FEA14454FEA114782
:1014800024EA054621EA074C05FB07F406FB07F7AB
:101490000CFB06F105FB0CFC11EB074144EB174478
:1014A0004FEA124711EB0C4144EB1C4422EA074C73
:1014B00005FB07F206FB07F70CFB06F605FB0CFC29
:1014C00016EB074642EB174216EB0C4642EB1C4567
:1014D0006A1854F1000148BF7047B619524141EBF8
:1014E0000101A3F10103704795F0000F37D04FEAD7
:1014F00011424FEA144721EA024624EA074C02FB54
:1015000007F106FB07F70CFB06F402FB0CFC14EBDF
:10151000074441EB17414FEA154714EB0C4441EBEC
:101520001C4125EA074C02FB07F506FB07F70CFBFD
:1015300006F602FB0CFC16EB074645EB174516EBCF
:101540000C4645EB1C42121951F1000148BF70478F
:10155000B619524141EB0101A3F1010370474FEA73
:1015600014454FEA114724EA054621EA074C05FBDA
:1015700007F106FB07F70CFB06F24FF0000605FB30
:101580000CFC12EB074241EB174112EB0C4251EB02
:101590001C4148BF7047921841EB0101A3F10103C0
:1015A0007047FEE77047002240F6B83306E000219E
:1015B000491C89B29942FBD3521C92B28242F6D3A3
:1015C000704772B6FEE710B590F825300021012271
:1015D000022B03D00421C163012122E003681C68AF
:1015E00024F00E041C60836C1C6824F480741C605E
:1015F00003681C6824F001041C6090F84430046CFB
:1016000003F01F0302FA03F36360D0E913345C6054
:10161000436D33B11C6824F480741C60D0E9163427
:101620005C6080F82520002280F82420084610BD48
:1016300070B590F82520002401212346022A07D006
:101640000422C26380F8251080F82430012429E0A8
:101650000268156825F00E0515600268156825F00A
:1016600001051560826C156825F48075156090F889
:101670004420056C02F01F0201FA02F26A60D0E910
:1016800013255560426D32B1156825F480751560DB
:10169000D0E91625556080F8251080F82430816B3C
:1016A00001B18847204670BD70B5044600F03CF992
:1016B0000546601C02D004484068044400F034F938
:1016C000401BA042FAD370BD000000202DE9F04F6E
:1016D000DFF82092002301260324A9F1040B85B032
:1016E0000F2709F1040AABF1040EFAE006FA03F53C
:1016F0002A407CD091F804C00CF0030CBCF1010F1F
:1017000002D0BCF1020F26D1D0F808C0CDF800C03D
:101710004FEA430C04FA0CF8CDF810C0DDF800C015
:101720002CEA080CCDF800C0D1F80C80DDF810C010
:1017300008FA0CF8DDF800C048EA0C08C0F8088088
:10174000D0F804C02CEA050C0D79C5F300159D40B6
:1017500045EA0C0545600D79ED43AD070ED0C5682F
:101760004FEA430804FA08FC25EA0C05D1F808C042
:101770000CFA08FC4CEA050CC0F80CC00D7905F019
:101780000305022D16D1DD0800EB850CCDF808C04D
:10179000DCF820805D074FEAD56C07FA0CF528EAE3
:1017A00005080D6905FA0CF5DDF808C045EA0805DD
:1017B000CCF8205005684FEA430CCDF808C004FA75
:1017C0000CFC25EA0C0591F804C00CF00308DDF8C8
:1017D00008C008FA0CF848EA0508C0F800804D680F
:1017E00015F4403F7CD0444DD5F860C000E077E070
:1017F0004CF0010CC5F860C02D6E23F0030C05F011
:10180000010500953D4D65440295AD684FEA837C26
:101810004FEA1C7807FA08FC25EA0C05B0F1904F56
:1018200006D0DFF8DCC0604505D14FF0010C20E0A8
:101830004FF0000C1DE0DFF8CCC0604502D14FF046
:10184000020C16E0DFF8C0C0604502D14FF0030C77
:101850000FE0DFF8B8C0604502D14FF0040C08E09B
:10186000DFF8ACC0604502D14FF0050C01E04FF04D
:10187000060C0CFA08FC4CEA050C029DC5F808C0E1
:10188000D9F80050CC46D1F8048095435FEAC828C7
:1018900000D51543CCF80050DAF80050D446D1F802
:1018A000048095435FEA882800D51543CCF80050A2
:1018B000DBF80050DC46D1F8048095435FEA8838B5
:1018C00000D51543CCF80050DEF80050F446D1F8AE
:1018D000048095435FEAC83800D51543CCF8005022
:1018E0005B1C0A6832FA03F57FF400AF05B0BDE86F
:1018F000F08F000008040140001002400000014089
:101900000004004800080048000C0048001000488F
:10191000001400480069084000D0012070470AB157
:10192000816170478162704701488068704700009C
:1019300000000020024881684268114481607047BD
:101940000000002010B50024032000F073F80F20E1
:1019500000F008F808B1012401E000F025F8204665
:1019600010BD000070B50E4E05460024706898B199
:101970004FF47A71B1FBF0F00A490968B1FBF0F05D
:1019800000F060FD40B9102D06D200222946501EFD
:1019900000F030F8356000E00124204670BD000002
:1019A000000000200C0000200A4882B0016E41F0C7
:1019B00001010166016E01F001010091816D41F0AC
:1019C00080518165806D00F08050009002B000F081
:1019D000A1B8000000100240002809DB00F01F023F
:1019E000012191404009800000F1E020C0F8001181
:1019F00070470000F0B40E4B1B680C46C3F3022383
:101A0000C3F10705042D00D90425191D072901D2AA
:101A1000002300E0DB1E012606FA05F1491E2140E5
:101A200099409E40761E16403143F0BC02F07FBFC5
:101A30000CED00E0064900F0070208684FF6FF03CE
:101A4000184040EA0220034A104308607047000033
:101A50000CED00E00000FA052B492C4B0A683221FE
:101A60004A432B4940B1B0F5007F086829D020F4E3
:101A7000C06040F480602CE00868C0F34120022878
:101A800004D051F8800F20F4807022E0D1F880005B
:101A900020F48070C1F88000086820F4C06040F431
:101AA00000700860B2FBF3F0401C00E0401E4A6981
:101AB000520501D50028F9D1486940050AD503200F
:101AC0007047C0F34120022806D051F8800F40F43F
:101AD0008070086000207047D1F8800040F480706A
:101AE000C1F88000086820F4C06040F4007008600D
:101AF000B2FBF3F0401C00E0401E4A695205DBD502
:101B00000028F9D1D8E700000C00002040420F0067
:101B1000007000400248816841F480418160704754
:101B2000007000402DE9F8430446006800269D4DF2
:101B300000035ED5A86D0027C00008D4A86D40F052
:101B40008050A865A86D012700F080500090DFF854
:101B50005892D9F8001041F48071C9F80010FFF7CD
:101B6000E3FE804606E000BFFFF7DEFEA0EB0800C4
:101B700002282BD8D9F80000C005F5D5D5F890007B
:101B800010F4407014D0216C814211D0D5F890002F
:101B9000D5F8901020F4407041F48031C5F89010D1
:101BA000D5F8901021F48031C5F89010C5F8900058
:101BB000C00711D0FFF7B8FE804641F2883907E030
:101BC000FFF7B2FEA0EB0801494501D903260BE05F
:101BD000D5F890008007F3D5D5F89000216C20F45B
:101BE00040700843C5F890001FB1A86D20F08050E8
:101BF000A8652078C00707D0D5F88800616820F074
:101C000003000843C5F888002078800707D5D5F879
:101C10008800A16820F00C000843C5F888002078EF
:101C2000400707D5D5F88800E16820F03000084368
:101C3000C5F888002078000707D5D5F88800216905
:101C400020F0C0000843C5F888002078800607D53A
:101C5000D5F88800616920F440600843C5F8880021
:101C60002078400607D5D5F88800A16920F44050B7
:101C70000843C5F888002078000607D5D5F8880005
:101C8000E16920F440400843C5F888002088C00579
:101C900007D5D5F88800216A20F440300843C5F8FC
:101CA00088002088800507D5D5F88800616A20F46F
:101CB00040200843C5F88800208840050FD5D5F896
:101CC0008800A16A20F440100843C5F88800A06A83
:101CD000B0F5801F03D1E86840F48010E8602088E8
:101CE00000050FD5D5F88800E16A20F440000843CC
:101CF000C5F88800E06AB0F5800F03D1E86840F4C9
:101D00008010E8602088C0040FD5D5F88800216BCA
:101D100020F040700843C5F88800206BB0F1807F48
:101D200003D1E86840F48010E86020884FF000613B
:101D300080040ED5D5F88800626B20F04060104317
:101D4000C5F88800606B884203D1E86840F48010D1
:101D5000E860208840040ED5D5F88800A26B20F0FA
:101D600040601043C5F88800A06B884203D1E86842
:101D700040F48010E860208800040FD5D5F8880072
:101D8000E16B20F040500843C5F88800E06BB0F1EB
:101D9000805F03D1E86840F48030E8603046BDE8F9
:101DA000F883000000100240007000402DE9F04769
:101DB0000E4605004FF0000725D0DFF8AC81D8F8BB
:101DC000000000F00F00B0420CD2D8F8001021F053
:101DD0000F013143C8F80010D8F8000000F00F00E0
:101DE000B04210D12968614CC80741F2883A5AD0F4
:101DF0006868DFF87C91032808D0022820682DD07D
:101E0000400500282CDB0120BDE8F0872068800118
:101E1000F9D5E06800F00302E068C0F30310401C4D
:101E2000032A19D0534A00BFB2FBF0F0E268C2F3B4
:101E300006225043E268C2F34162521C5200B0FBDA
:101E4000F2F0484517D9A06810F0F00F0CD08807C1
:101E500011D5A86840B10EE0474AE5E78003D0E716
:101E600000F0B6F8484506D9A06820F0F00040F030
:101E70008000A0608027A068696820F00300084304
:101E8000A060FFF751FD814606E000BFFFF74CFD63
:101E9000A0EB090151453AD8A068696800F00C0030
:101EA000B0EB810FF2D12868810714D5400703D524
:101EB000A06840F4E060A0602878000705D5A0681D
:101EC00020F4605040F4E060A060A068A96820F0B1
:101ED000F000084304E0802F03D1A06820F0F00058
:101EE000A060D8F80010404601F00F01B14216D9A9
:101EF000016821F00F0131430160FFF715FD07462E
:101F000007E000BFFFF710FDC11B514501D90320B9
:101F10007AE7D8F8000000F00F00B042F2D128783C
:101F2000400705D5A068E96820F4E0600843A06098
:101F30002878000706D5A068296920F4605040EA97
:101F4000C100A06000F044F8A1680C4AC1F303117D
:101F5000515C01F01F01C840094908600948006848
:101F6000BDE8F047FFF7FEBC002002400010024031
:101F700000B4C4040024F40000366E0106560008C4
:101F80000C00002000000020054806490068896810
:101F9000054AC1F30221515C01F01F01C84070479E
:101FA0000C000020001002401656000805480649A3
:101FB00000688968054AC1F3C221515C01F01F0124
:101FC000C84070470C000020001002401656000860
:101FD000184910B58868C0F381021748012A0BD050
:101FE0008A68164BC2F38102022A06D08A68C2F3BD
:101FF0008102032A03D0002010BD184610BDCA6814
:1020000002F00304CA68C2F30312521C032C02D06C
:10201000B0FBF2F001E0B3FBF2F0CA68C968C2F3AA
:1020200006225043C1F34161491C4900B0FBF1F065
:1020300010BD0000001002400024F40000366E01C4
:102040002DE9F84304007AD02078F84DC00747D036
:10205000A868E96800F00C0001F003010C2802D028
:10206000082817D001E0032914D06068B0F5803F3C
:1020700017D0B0F5A02F286817D020F48030286042
:10208000286820F4802028606068E0B1FFF74CFCED
:10209000064614E02868800322D560680028D2D064
:1020A0001EE0286840F48030EDE740F4802028608E
:1020B000F7E700BFFFF738FC801B642870D828685A
:1020C0008003F7D50CE0FFF72FFC064605E000BFC4
:1020D000FFF72AFC801B6428F0D828688003F7D417
:1020E000207880074CD5A868E96800F00C0001F062
:1020F00003010C2802D004280DD001E002290AD0E7
:10210000E068002828682BD040F480702860FFF732
:102110000BFC064619E02868400502D5E068002857
:1021200091D06868217C20F0FE4040EA0160686040
:10213000BF480068FFF716FC002800D120E072E1DC
:10214000FFF7F2FB801B0228B8D828684005F7D5B6
:102150006868217C20F0FE4040EA016068600FE082
:1021600020F480702860FFF7DFFB064605E000BF23
:10217000FFF7DAFB801B0228A0D828684005F7D4B7
:102180002078000729D560690028D5F8940013D07D
:1021900040F00100C5F89400FFF7C6FB064606E0D4
:1021A00090E000BFFFF7C0FB801B022886D8D5F85F
:1021B00094008007F6D510E020F00100C5F89400E7
:1021C000FFF7B2FB064604E0FFF7AEFB801B0228D8
:1021D00078D8D5F894008007F6D42078400761D5E8
:1021E000A86D0026C00008D4A86D40F08050A865F6
:1021F000A86D012600F0805000908E480168C90546
:1022000011D40168804641F480710160FFF78CFBB6
:10221000074604E0FFF788FBC01B022852D8D8F815
:102220000000C005F6D5A068012815D00528D5F80E
:10223000900016D020F00100C5F89000D5F890006D
:1022400020F00400C5F89000A06841F28838B8B1C9
:10225000FFF76AFB07460EE0D5F8900040F001005A
:10226000F0E740F00400C5F89000F5E7FFF75CFBED
:10227000C11B414526D8D5F890008007F6D50CE063
:10228000FFF752FB074604E0FFF74EFBC11B414539
:1022900018D8D5F890008007F6D41EB1A86D20F0AC
:1022A0008050A8652078800629D5A0690028D5F837
:1022B000980013D040F00100C5F89800FFF734FBF8
:1022C000064606E075E000BFFFF72EFB801B0228E4
:1022D0006FD8D5F898008007F6D510E020F00100FF
:1022E000C5F89800FFF720FB064604E0FFF71CFB4B
:1022F000801B02285DD8D5F898008007F6D4E069E5
:10230000F0B3A968C1F3810103295DD002282868D0
:1023100020F08070286003D0FFF706FB04464BE0F6
:10232000FFF702FB064604E0FFF7FEFA801B0228D7
:102330003FD828688001F7D4F4E908016FF00F0254
:1023400002EB01110843218A5204490802EB415172
:10235000A26841EA02210843217D4FF07E424908EC
:1023600002EB41610843217B40EAC160E968324ADF
:1023700011400843E860286840F08070286000E061
:102380005EE0E86840F08070E860FFF7CDFA044650
:1023900005E000BFFFF7C8FA001B022809D828682B
:1023A0008001F7D54CE000BFFFF7BEFA001B022802
:1023B00002D90320BDE8F88328688001F4D4E868D6
:1023C0001E490840E8603BE00128F3D0E868226A33
:1023D00000F00301914226D1616A00F0F002090188
:1023E000103991421FD1A26A00F4FE41B1EB022FD5
:1023F00019D194F82C2000F07841B1EBC26F12D1C2
:10240000218E00F4C00249084905A1F5001191424E
:1024100009D194F8341000F0C06049084906A1F1D0
:10242000007181420CD00120C4E70000001002407E
:1024300000000020007000400C809F01FCFFEEFEB9
:102440000020B7E710B5401EB0F1807F01D3012016
:1024500010BD4FF0E02460610F21601702F067FAB1
:102460000020A06107202061002010BDF0B590F889
:102470003C20012A3AD0012580F83C50022280F805
:102480003D2003685A689C68194E1A4FB34201D028
:10249000BB4204D122F4700C4A6842EA0C02DFF815
:1024A00058C002EA0C02D1F800C04CEA020CC3F892
:1024B00004C00268B2420DD0B2F1804F0AD00F4B77
:1024C0009A4207D00E4B9A4204D0BA4202D00D4B2A
:1024D0009A4204D1896824F080031943916080F8FE
:1024E0003D50002180F83C100846F0BD0220F0BDB0
:1024F000002C0140003401408FFFFFFD000400402C
:10250000000800400040014010B586B00446142188
:102510006846FEF758F82068B0F1804F15D10C4896
:10252000C16C41F00101C164C06C694600F001005A
:10253000059002200090019000200290039001205D
:1025400004904FF09040FFF7C1F806B010BD0000B6
:102550000010024070B5044690F83C0000260D467D
:1025600001280BD0012084F83C000C2A4AD007DC5B
:1025700082B1042A20D0082A06D131E0022070BDA1
:10258000102A53D0142A63D00126002084F83C007E
:10259000304670BD206801F091FA2068816941F0F1
:1025A000080181612068816921F00401816120684E
:1025B00081692A69114311E0206801F0CDFA206891
:1025C000816941F4006181612068816921F4806141
:1025D0008161206881692A6941EA02218161D4E729
:1025E000206801F001FB2068C16941F00801C16168
:1025F0002068C16921F00401C1612068C1692A69AC
:10260000114311E0206801F037FB2068C16941F4F3
:102610000061C1612068C16921F48061C1612068E5
:10262000C1692A6941EA0221C161AEE7206801F06F
:102630006BFB2068016D41F0080101652068016DA8
:1026400021F0040101652068016D2A69114311E040
:10265000206801F091FB2068016D41F40061016583
:102660002068016D21F4806101652068016D2A698F
:1026700041EA0221016588E710B5040003D094F80F
:102680003D0010B107E0012010BD002084F83C009F
:10269000204600F023F8022084F83D00211D206828
:1026A00001F0A0F9012084F8480084F83E0084F885
:1026B0003F0084F8400084F8410084F8420084F828
:1026C000430084F8440084F8450084F8460084F808
:1026D000470084F83D00002010BD000008B50068E8
:1026E000B0F1804F08D10548816D41F0010181654D
:1026F000806D00F00100009008BD00000010024055
:1027000030B50446022269B1042912D0082917D035
:102710000C291CD0102921D094F84300012824D082
:10272000012030BD94F83E000128F9D184F83E2004
:102730001DE094F83F000128F2D184F83F2016E014
:1027400094F840000128EBD184F840200FE094F881
:1027500041000128E4D184F8412008E094F84200C7
:102760000128DDD184F8422001E084F843200122D1
:10277000206801F095F9194B20681949194A9842C7
:1027800009D0884207D0904205D0174DA84202D008
:10279000164DA84203D1456C45F4004545642068B8
:1027A00098420CD0B0F1804F09D0114B984206D01E
:1027B000104B984203D0884201D0904207D18168E3
:1027C0000D4A1140062906D0B1F5803F03D00168BB
:1027D00041F001010160002030BD0000002C0140EB
:1027E00000340140004001400044014000480140E5
:1027F00000040040000800400700010090F8841029
:10280000012918D0012180F884102421C0F88810F3
:1028100001680A680B6823F001030B6022F0005185
:1028200000224266036819602021C0F8881080F8F1
:10283000842010467047022070477047704770B57B
:10284000044690F8840001281DD0012084F88400FB
:102850002420C4F8880020680568026822F001027C
:1028600002602068826822F060620A43826020462B
:1028700001F0BAFA206805602020C4F88800002022
:1028800084F8840070BD022070BD70B5044690F8D5
:10289000840001281DD0012084F884002420C4F87D
:1028A000880020680568026822F001020260206842
:1028B000826822F060420A438260204601F094FA66
:1028C000206805602020C4F88800002084F8840077
:1028D00070BD022070BD7047704770472DE9F04110
:1028E00003680446D86919689A6840F60F052842BB
:1028F0004FF000054FF002060AD187067ED501F0A1
:10290000200702F0805C57EA0C0777D0616F42E144
:10291000B64FDFF8DCC2174001EA0C0C57EA0C0C8A
:102920006CD05FEAC07C0CD05FEAC15C09D54FF087
:10293000010CC3F820C0D4F8903043F00103C4F870
:102940009030830709D5D30707D023681E62D4F8D7
:10295000903043F00403C4F8903043070AD5D307FE
:1029600008D0266804233362D4F8903043F0020381
:10297000C4F8903003070CD501F020033B4308D086
:10298000266808233362D4F8903043F00803C4F873
:10299000903003050BD54B0109D526684FF4006331
:1029A0003362D4F8903043F02003C4F89030D4F868
:1029B0009030002B3DD0800609D501F0200002F0B8
:1029C0008051084303D0616F09B120468847D4F88D
:1029D000900021688968490602D410F0280F2AD097
:1029E000204601F0E7FA2068806840061ED520687E
:1029F000083050E8001F21F0400100E021E040E8ED
:102A00000012002AF3D1D4F8800078B179498163AB
:102A1000D4F88000FEF70CFE00280AD0D4F880001D
:102A2000816B00E02046BDE8F04108472046FFF7F3
:102A300054FFBDE8F0812046FFF74FFFC4F89050E7
:102A4000F7E7D4F86CC02027BCF1010F7ED15FEA14
:102A5000C06C7BD55FEAC16C78D510201862206805
:102A60008068400651D5D4F880100A685068000488
:102A7000000C3ED0B4F85C3083423AD9A4F85E0032
:102A80000868006880062CD4216851E8000F20F403
:102A9000807041E80002002AF6D12068083050E832
:102AA000001F21F0010140E80012002AF5D1206842
:102AB000083050E8001F21F0400140E80012002AD1
:102AC000F5D1C4F88C70E566216851E8000F20F05C
:102AD000100041E80002002AF6D1D4F88000FEF789
:102AE00072FD2667B4F85C00B4F85E10401A81B23B
:102AF00007E0B4F85C1081429BD11068800698D53D
:102B000026672046FFF799FE93E7B4F85C00B4F817
:102B10005E10401A81B2B4F85E00002889D0002906
:102B200087D0226852E8000F20F4907042E800033A
:102B3000002BF6D12D4BDB432068083050E8002FE6
:102B40001A4040E8002CBCF1000F00E00EE0F3D189
:102B5000C4F88C70E5666567206850E8002F22F0A5
:102B6000100240E80023002BF6D1C9E7C60209D5C0
:102B7000560207D54FF4801018622046BDE8F04198
:102B8000FFF7AABE03060AD501F0800302F4000293
:102B9000134304D0A16F00297FF444AF49E74206F4
:102BA00011D54A060FD52046016851E8002F22F0C2
:102BB000400241E80023002BF6D1C0F888708567F9
:102BC00000F04DF935E7020206D54A0004D520464B
:102BD000BDE8F041FFF77FBEC00195D5002993DA2B
:102BE0002046BDE8F041FFF729BE000001000010BB
:102BF00020010004A13F000810B5040003D0D4F860
:102C0000880010B107E0012010BD002084F8840086
:102C1000204600F027F82420C4F8880020680168C6
:102C200021F001010160A06A10B1204601F0FEF818
:102C3000204601F051FC0128E6D02068416821F4CB
:102C4000904141602068816821F02A0181602068FC
:102C5000016841F0010101602046BDE8104001F02B
:102C600049B9000010B598B00446142111A8FDF729
:102C7000AAFC44216846FDF7A6FC1B49206888424F
:102C800030D101200024CDE900046846FEF74AFF58
:102C900008B1FEF796FC1548016E41F480410166CB
:102CA000016E01F480411691C16C41F00101C164D3
:102CB000C06C11A900F0010016904FF4C060119093
:102CC0000220CDE912040720CDE914404FF09040D6
:102CD000FEF7FCFC002211462520FEF78BFE252086
:102CE000FEF77AFE18B010BD003801400010024017
:102CF00030B4D0F88C30202B02D0022030BC70478A
:102D0000A9B1A2B10023C3660A4C0368A3420BD049
:102D10005B681B0208D5046854E8003F43F08063F9
:102D200044E80035002DF6D130BC01F00FBD012084
:102D3000E4E70000008000407CB500681449884248
:102D400024D1144C607B3F2817D1A06902F0CAFB44
:102D500005460E46606902F0C5FB41EC100BCDE95B
:102D6000005653EC102B0CA10F48FDF72DFB32231E
:102D700014220D490D4800F01BF802B00549BDE8CA
:102D8000704001220D310948FFF7B2BF7CBD000041
:102D90000038014010000020583A252E31662C5989
:102DA0003A252E31660D0A00390100208C000020E2
:102DB0002DE9F8430446D0F88800984616460D469B
:102DC000202802D00220BDE8F883A5B19EB10020E2
:102DD000C4F890002120C4F888001834FEF7A4FD40
:102DE000A6878146E68754F8100C2027183CB0F5DA
:102DF000805F02D003E00120E5E7206910B12E4694
:102E0000002510E000260EE08021204601F026FD7E
:102E1000C0B9DEB116F8010B21688862B4F856001B
:102E2000401EA4F85600B4F856004B464FF000027E
:102E3000CDF800800028E7D14FF04001204601F096
:102E40000DFD40B1C4F888700320BCE735F8020BD3
:102E5000C0F30800E0E7C4F888700020B3E77047CB
:102E6000FEE7000000B585B014216846FDF7ABFB16
:102E7000C02000900120019002900220039069463A
:102E80000248FEF723FC05B000BD00000004004826
:102E900070B50824002500F02FFD13E06806050E2C
:102EA000002000F011FD142001F058FD142001F065
:102EB00055FD012000F008FD142001F04FFD00F049
:102EC0000FFD0543641EE4B2E8D2002000F0FCFCD4
:102ED000142001F043FD00F031FD284670BD10B50F
:102EE000002000F01FFD142001F038FD142001F037
:102EF00035FD012000F0E8FC142001F02FFD00203A
:102F000000F0E2FCBDE81040142001F027BD70B5D0
:102F10000446082516E000F0D7FC142001F01EFD41
:102F200004F0800000F0FEFC142001F017FD6006A4
:102F3000040E142001F012FD012000F0C5FC142045
:102F400001F00CFD6D1EEDB24FF00000E3D200F079
:102F5000BBFCBDE87040142001F000BD10B501209D
:102F600000F0E0FC142001F0F9FC142001F0F6FC64
:102F7000012000F0A9FC142001F0F0FC002000F07A
:102F8000A3FCBDE81040142001F0E8BC10B50120FE
:102F900000F0C8FC142001F0E1FC012000F094FCDA
:102FA000142001F0DBFC002000F0BCFC142001F038
:102FB000D5FC002000F088FCBDE81040142001F092
:102FC000CDBC10B5002000F07FFC142001F0C6FC41
:102FD000002000F0A7FC142001F0C0FC012000F04C
:102FE00073FC142001F0BAFC012000F09BFCBDE84A
:102FF0001040142001F0B2BC10B5052400F07CFC98
:10300000142001F0ABFC012000F05EFC142001F064
:10301000A5FC05E0641EA4B2142001F09FFC64B17D
:1030200000F05EFC0028F5D100F04EFC00F086FCBC
:10303000142001F093FC002010BD00F07FFCFFF78E
:10304000C0FF012010BD000000B585B01421684606
:10305000FDF7B9FA4FF6FF70009000200321CDE98B
:103060000201019069460248FEF730FB05B000BD41
:103070000008004800B585B014216846FDF7A3FAA2
:103080004FF6FF7000900120019003200390002074
:10309000029069460248FEF719FB05B000BD00002A
:1030A0000008004870B5002406462146204600F07E
:1030B00003F900F041F94FF49635304600F010F96D
:1030C000641CAC42F9D370BD70B586B0142168465B
:1030D000FDF779FA1E48C16C41F00401C164C16C6E
:1030E00001F004010591C16C41F00101C164C16CA2
:1030F00001F001010591C16C41F00201C164C06C95
:10310000032500F0020005904FF4487001240026CA
:1031100003958DE8510069460E48FEF7D7FA200264
:1031200003958DE851004FF0904469462046FEF724
:10313000CDFAFFF79FFFA06940F48070A0610548B9
:103140001830016841F40871016006B070BD0000DC
:103150000010024000040048203AD2B2034B02EBB8
:10316000420203EB021200F019B800001E560008DC
:10317000F0B50E460746002540F23F1407E0214611
:103180003846FFF7E9FF103C6D1CA4B2761C32787C
:10319000002A01D0142DF2D3F0BD00002DE9F04734
:1031A00091468A460026044600F086F8DFF8408003
:1031B000012700BF00F0C0F85FF0000539F81600E5
:1031C00007FA05F10842404601D1408800E0008836
:1031D00000F086F86D1C102DF0D3641CE4B251464B
:1031E000204600F069F8761C182EE3D3BDE8F0877E
:1031F0003800002010B5FFF767FF002000F014F83A
:10320000084CA080A088A0F50241303906D000F01B
:1032100059FA002000F008F8A08010BD00F0C9F9AC
:10322000F7E700003800002070B51D490A6842F435
:1032300000720A600A6842F480720A60184C103CFE
:10324000226842F020022260164A1060086840F0AE
:103250002000086000BF00BF00BF206840F02000D1
:103260002060206840F480702060FFF7EDFE4FF092
:103270009041886A40F48070886200BF00BF00BF40
:103280000848001F006885B2886940F48070886132
:10329000FFF7F0FE206840F400702060284670BD03
:1032A000280400481408004801B5BDF80000014991
:1032B000488008BD3800002010B50C46014620208B
:1032C00000F068F82146BDE81040212000F062B807
:1032D00001B5BDF800000149088008BD3800002094
:1032E000134A116841F400711160114910390B68DB
:1032F00043F480730B600B6843F020030B600D4BAD
:103300001860106840F02000106000BF00BF00BFD0
:10331000086840F020000860086840F48070086089
:1033200000BF00BF00BF086840F40070086070472D
:1033300028040048140800481449086840F4007044
:103340000860086840F4807008601048103802680F
:1033500042F0200202600E4B22221A600A6842F0FC
:1033600020020A6000BF00BF00BF016841F02001D9
:103370000160016841F48071016000BF00BF00BFBF
:10338000016841F4007101607047000028040048A2
:1033900014080048184B10B51A6842F400721A60FD
:1033A0001A6842F480721A60134A103A146844F0A2
:1033B00020041460114C2060186840F02000186050
:1033C00000BF00BF00BF106840F020001060106810
:1033D00040F4807010602160186840F02000186090
:1033E00000BF00BF00BF106840F0200010601068F0
:1033F00040F48070106010BD280400481408004894
:10340000F0B587B014216846FDF7DDF82D48C16C92
:1034100041F00401C164C16C01F004010591C16C6B
:1034200041F02001C164C16C01F020010591C16C23
:1034300041F00101C164C16C01F001010591C16C51
:1034400041F00201C164C16C01F002010591C16C3F
:1034500041F00801C164C06C1B4E00F008004FF43D
:103460007F440590012221463046FEF758FA174F57
:10347000012204213846FEF752FA0125CDE9004524
:1034800000240294694630460394FEF71FF9CDE903
:10349000005469464FF090400295FEF717F9072057
:1034A0008DE8310069460A48FEF710F904200090C3
:1034B000CDE90154694638460394FEF707F907B091
:1034C000F0BD00000010024000080048000C004859
:1034D0000004004810B58AB00024079408941C2109
:1034E00068460994FDF76FF815484FF08041016078
:1034F00040F21F31C0E901146321C0E90314846163
:10350000FFF7BAF808B1FEF75CF8079407A90C4872
:103510000994FEF7ABFF08B1FEF753F86020CDE940
:10352000000402940422694605480494FFF712F847
:1035300008B1FEF746F80248FEF7E6FF0AB010BDF4
:1035400040000020184810B5164901604FF416518C
:103550004160002181600C22C160C0E904128161D8
:10356000C161016241628162FFF746FB08B1FEF76B
:1035700028F800210C48FFF788F908B1FEF721F878
:1035800000210948FFF75BF908B1FEF71AF8064871
:10359000FFF734F9002803D0BDE81040FEF711B85A
:1035A00010BD0000003801408C000020FEE7FEE75F
:1035B000704730B501210020FFF7ECFE4FF47A7020
:1035C000FDF7F1FF00210120FFF7E4FE41F29071C9
:1035D0001020FFF7DFFE4FF41C516020FFF7DAFEEA
:1035E00001216120FFF7D6FE02214620FFF7D2FE1F
:1035F00048F210011320FFF7CDFE48F2FE01122021
:10360000FFF7C8FE4FF4A0610220FFF7C3FE41F2AE
:1036100030010320FFF7BEFE40F203342146302084
:10362000FFF7B8FE21463120FFF7B4FE21463220D5
:10363000FFF7B0FEE51E29463320FFF7ABFE03215E
:103640003420FFF7A7FE21463520FFF7A3FE142103
:103650003620FFF79FFE21463720FFF79BFE2146CD
:103660003820FFF797FE21463920FFF793FE2946C1
:103670003A20FFF78FFE03213B20FFF78BFE214608
:103680003C20FFF787FE4FF4A0513D20FFF782FE5C
:103690004FF400719220FFF77DFE21469320FFF743
:1036A00079FE40F60D019020FFF774FE41F21801FB
:1036B0000320FFF76FFEBDE8304040F27311072092
:1036C000FFF768BE10B543F20801E320FFF762FE82
:1036D0001221E720FFF75EFE41F23121EF20FFF7D4
:1036E00059FE00210120FFF755FE4FF4E061022052
:1036F000FFF750FE41F230010320FFF74BFE00219F
:103700000420FFF747FE40F207210820FFF742FEA2
:1037100000210920FFF73EFE00210A20FFF73AFEB4
:1037200000210C20FFF736FE00210D20FFF732FEAE
:1037300000210F20FFF72EFE00211020FFF72AFEA8
:1037400007211120FFF726FE00211220FFF722FE9D
:1037500000211320FFF71EFEC820FDF7A5FF41F250
:1037600090611020FFF716FE40F227211120FFF78D
:1037700011FE3220FDF798FF1D211220FFF70AFEEF
:103780003220FDF791FF4FF400611320FFF702FE96
:1037900014212920FFF7FEFD0B212B20FFF7FAFD56
:1037A0003220FDF781FF00212020FFF7F3FD0021EB
:1037B0002120FFF7EFFD07213020FFF7EBFD40F25E
:1037C00007713120FFF7E6FD06213220FFF7E2FD09
:1037D00040F204713520FFF7DDFD41F6047136201B
:1037E000FFF7D8FD04213720FFF7D4FD0021382052
:1037F000FFF7D0FD40F206713920FFF7CBFD40F214
:1038000001713C20FFF7C6FD0F213D20FFF7C2FDEF
:1038100000215020FFF7BEFDEF215120FFF7BAFD38
:1038200000215220FFF7B6FD40F23F115320FFF771
:10383000B1FD4FF41C516020FFF7ACFD0121612068
:10384000FFF7A8FD00216A20FFF7A4FD00218020DA
:10385000FFF7A0FD00218120FFF79CFD00218220C1
:10386000FFF798FD00218320FFF794FD00218420BD
:10387000FFF790FD00218520FFF78CFD102190209F
:10388000FFF788FD00219220FFF784FD032193209C
:10389000FFF780FD4FF488719520FFF77BFD002135
:1038A0009720FFF777FD00219820FFF773FD41F285
:1038B00018010320FFF76EFDBDE8104040F27311C0
:1038C0000720FFF767BD000008B1044801E0034886
:1038D0001030016841F04001016070471804004851
:1038E00010B580210348FEF715F8012800D000200C
:1038F00010BD00000004004800B585B014216846E2
:10390000FCF761FE802000900020019001200290D1
:103910000220039069460248FDF7D8FE05B000BDBD
:103920000004004808B1044801E003481030016871
:1039300041F08001016070471804004800B585B06F
:1039400014216846FCF73FFE802000901120019072
:10395000002002900220039069460248FDF7B6FE5F
:1039600005B000BD000400487047FDF7E3BF10B587
:1039700094B038216846FCF726FE14210EA8FCF707
:1039800022FE4FF40070FEF767F80120009000045B
:10399000019002200324CDE907041421CDE90A1087
:1039A0000C900D9009946846FEF74AFB08B172B678
:1039B000FEE70F20CDE90E04002010901190129028
:1039C00002210EA8FEF7F2F9002801D072B6FEE738
:1039D00014B010BD0248016841F4700101607047E5
:1039E00088ED00E02DE9F0430268264B264D274E76
:1039F000274C4FF08049984207D0484505D0A8424F
:103A000003D0B04201D0A04203D122F070074A682F
:103A10003A43204FDFF880C0DFF8808098420DD015
:103A200048450BD0A84209D0B04207D0A04205D0EB
:103A3000B84203D0604501D0404503D122F440751F
:103A4000CA682A434D6922F080022A4302608A68CC
:103A5000C2620A688262984207D0A04205D0B8428A
:103A600003D0604501D0404501D1096901630121BE
:103A700041610169C90703D0016921F001010161B8
:103A8000BDE8F083002C0140000400400008004025
:103A90000034014000400140004401400048014022
:103AA00010B501F01F030121046A99408C430462A0
:103AB000016A9A401143016210BD00002DE9F043F4
:103AC000056A026A22F001020262436882691C4CA4
:103AD00025F0020522400C6822F0030214438A6894
:103AE000194E2A43174D194FDFF864C0DFF8649070
:103AF000A84207D0B04205D0B84203D0604501D0FB
:103B0000484506D122F00808CA6842EA080222F0B5
:103B10000402A84207D0B04205D0B84203D06045A5
:103B200001D0484505D14D6923F440731D438B698D
:103B30002B4343608461496841630262BDE8F083BE
:103B40008FFFFEFF002C0140003401400040014087
:103B50000044014000480140F0B5056A026A22F0C5
:103B60001002026242688369194C1B4E23400C68A4
:103B700023F4407343EA042425F020038D6843EACC
:103B80000513144DA84201D0B04206D1CF6823F0EE
:103B9000800343EA071323F04003A8420AD0B0424F
:103BA00008D00E4DA84205D00D4DA84202D00D4DB3
:103BB000A84207D14D6922F4406242EA85028D692C
:103BC00042EA850242608461496881630362F0BD14
:103BD000FF8FFFFE002C01400034014000400140F7
:103BE0000044014000480140F0B5056A026A22F431
:103BF000807202624368C269194C1B4E22400C68F5
:103C000022F00302144325F400728D6842EA052273
:103C1000144DA84201D0B04206D1CF6822F4006210
:103C200042EA072222F48062A8420AD0B04208D0B9
:103C30000E4DA84205D00E4DA84202D00D4DA8420F
:103C400007D14D6923F4405343EA05138D6943EAD4
:103C500005134360C4614968C1630262F0BD00009E
:103C60008FFFFEFF002C0140003401400040014066
:103C70000044014000480140F0B5056A026A22F4A0
:103C8000805202624268C369194C1B4E23400C6883
:103C900023F4407343EA042425F400538D6843EA77
:103CA0000533144DA84201D0B04206D1CF6823F4A9
:103CB000004343EA073323F48043A8420AD0B042CA
:103CC00008D00E4DA84205D00D4DA84202D00D4D92
:103CD000A84207D14D6922F4404242EA85128D691B
:103CE00042EA85124260C461496801640362F0BD22
:103CF000FF8FFFFE002C01400034014000400140D6
:103D0000004401400048014030B5056A026A22F4CF
:103D1000803202624268036D114C23400C681C43E0
:103D200025F400330D8943EA05430E4DA8420BD01C
:103D30000D4DA84208D00D4DA84205D00C4DA8420B
:103D400002D00C4DA84204D14D6922F4803242EADF
:103D500005224260046549688164036230BD000049
:103D60008FFFFEFF002C0140003401400040014065
:103D7000004401400048014030B5046A026A22F460
:103D8000801202624268036D114D24F400142B402E
:103D90000D6843EA05230D8944EA05540D4DA842F8
:103DA0000BD00D4DA84208D00C4DA84205D00C4DAB
:103DB000A84202D00B4DA84204D14D6922F48022C2
:103DC00042EA8522426003654968C164046230BDED
:103DD000FF8FFFFE002C01400034014000400140F5
:103DE000004401400048014030B5416EB9B102685D
:103DF00091689268C1F342610B4B520F9C5CE500E5
:103E000003F10804A25CB5FBF2F2A0F86A205A5C48
:103E1000615CD200B2FBF1F1A0F8681030BD012165
:103E2000A0F86A10F8E70000F655000890F828108E
:103E3000090706D501684A68836B22F400421A43D9
:103E40004A6090F82810C90706D001684A68C36A1A
:103E500022F400321A434A6090F82810890706D5E8
:103E600001684A68036B22F480321A434A6090F872
:103E70002810490706D501684A68436B22F480225E
:103E80001A434A6090F82810C90606D501688A6866
:103E9000C36B22F480521A438A6090F82810890676
:103EA00006D501688A68036C22F400521A438A60BE
:103EB00090F82810490611D501684A68436C22F42D
:103EC00080121A434A60416CB1F5801F06D1016827
:103ED0004A68836C22F4C0021A434A6090F82810A2
:103EE000090606D501684A68C06C22F40022024324
:103EF0004A6070472DE9F84300260446C0F89060F8
:103F0000FDF712FD8046206800684FF0200500078D
:103F10006FF07E4713D543460022290420460097C0
:103F200000F09CFC58B1216851E8000F20F080009F
:103F300041E80002002AF6D1C4F8885021E0206848
:103F40000068400722D5434600224FF480012046F6
:103F5000009700F083FCC8B1216851E8000F20F4FD
:103F6000907041E80002002AF6D12068083050E83D
:103F7000001F21F0010140E80012002AF5D1C4F829
:103F80008C5084F884600320BDE8F883C4F888501E
:103F9000C4F88C5044F86C6F666026760020F3E716
:103FA00010B5806A0021A0F85E10A0F85610FEF748
:103FB00094FC10BD10B5026852E8001F21F4907106
:103FC00042E80013002BF6D10E4B0268083252E88B
:103FD000001F194042E80014002CF6D1C16E0129DF
:103FE00008D1016851E8002F22F0100241E80023B7
:103FF000002BF6D12021C0F88C100021C16641674A
:1040000010BD0000FEFFFFEF10B5B0F86020D0F843
:104010008C300168222B04D0886940F00800886148
:1040200010BD496A836D11401980816D891C8165BD
:10403000B0F85E10491EA0F85E10B0F85E100029BE
:10404000EED1026852E8001F21F4907142E800139B
:10405000002BF6D10168083151E8002F22F001024F
:1040600041E80023002BF5D12021C0F88C1000215D
:1040700041670167154B02689A420BD052681202E1
:1040800008D5036853E8002F22F0806243E800243B
:10409000002CF6D1C26E012A02D0FEF74DFE10BDF3
:1040A000C166026852E8001F21F0100142E80013C7
:1040B000002BF6D10168CA69D243D20601D410227E
:1040C0000A62B0F85C10FEF7B8FB10BD008000403B
:1040D0002DE9F0470446B0F860600068C569D0F883
:1040E00000A0D0F80890D4F88C10222905D081695E
:1040F00041F008018161BDE8F087B4F868704FF0C5
:10410000000844E02068406AA16D30400880A06D3E
:10411000801CA065B4F85E00401EA4F85E00206814
:10412000C569690730D0E9070AD05FEACA5107D5E7
:1041300001210162D4F8900040F00100C4F8900021
:10414000A8070BD55FEAC97008D021680220086271
:10415000D4F8900040F00400C4F8900068070BD534
:104160005FEAC97008D0216804200862D4F8900082
:1041700040F00200C4F89000D4F8900020B120462E
:10418000FEF7ABFBC4F89080B4F85E0000B30FB14B
:10419000A806B7D4B4F85E000028ACD0B4F8681014
:1041A0008142A8D92068083050E8001F21F08051D2
:1041B00040E80012002AF5D12A486067206850E8DC
:1041C000001F41F0200140E80012002AF6D192E7DA
:1041D000216851E8000F20F4807041E80002002AB5
:1041E000F6D1214A2068083050E8001F114040E80D
:1041F0000013002BF6D12020C4F88C00C4F8748082
:104200004046C4F87080194A216891420BD0496831
:10421000090208D5226852E8001F21F0806142E8B7
:104220000013002BF6D1E16E012903D02046FEF7E2
:1042300083FDAFE7E066216851E8000F20F0100031
:1042400041E80002002AF6D12068C169C943C906C5
:1042500001D410210162B4F85C102046FEF7EDFA9B
:1042600098E7000009400008FEFFFFEF00800040D3
:1042700010B5B0F86020D0F88C300168222B04D043
:10428000886940F00800886110BD496A1140826D5C
:104290001170816D491C8165B0F85E10491EA0F84F
:1042A0005E10B0F85E100029EED1016851E8002FD1
:1042B00022F4907241E80023002BF6D10168083106
:1042C00051E8002F22F0010241E80023002BF5D134
:1042D0002021C0F88C10002141670167154B02684E
:1042E0009A420BD05268120208D5036853E8002F97
:1042F00022F0806243E80024002CF6D1C26E012A2D
:1043000002D0FEF719FD10BDC166026852E8001F19
:1043100021F0100142E80013002BF6D10168CA69B0
:10432000D243D20601D410220A62B0F85C10FEF724
:1043300084FA10BD008000402DE9F0470446B0F833
:1043400060600068C569D0F800A0D0F80890D4F883
:104350008C10222905D0816941F008018161BDE8F6
:10436000F087B4F868704FF0000844E02068406AB5
:10437000A16D30400870A06D401CA065B4F85E00CF
:10438000401EA4F85E002068C569690730D0E907BF
:104390000AD05FEACA5107D501210162D4F8900022
:1043A00040F00100C4F89000A8070BD55FEAC9707F
:1043B00008D0216802200862D4F8900040F0040080
:1043C000C4F8900068070BD55FEAC97008D021686F
:1043D00004200862D4F8900040F00200C4F8900075
:1043E000D4F8900020B12046FEF777FAC4F8908008
:1043F000B4F85E0000B30FB1A806B7D4B4F85E00FD
:104400000028ACD0B4F868108142A8D920680830E0
:1044100050E8001F21F0805140E80012002AF5D139
:104420002A486067216851E8000F40F0200041E809
:104430000002002AF6D192E7216851E8000F20F42B
:10444000807041E80002002AF6D1214A2068083035
:1044500050E8001F114040E80013002BF6D1202047
:10446000C4F88C00C4F874804046C4F87080194ABF
:10447000216891420BD04968090208D5226852E8A8
:10448000001F21F0806142E80013002BF6D1E16E9D
:10449000012903D02046FEF74FFCAFE7E066206815
:1044A00050E8001F21F0100140E80012002AF6D168
:1044B0002068C169C943C90601D410210162B4F85A
:1044C0005C102046FEF7B9F998E700007142000839
:1044D000FEFFFFEF008000402DE9F0410446016837
:1044E00080682269E3691043626900251A4310431A
:1044F000DFF82CC20A688B4B1A4002430A6020681E
:104500004168E26821F44051114341602168A0698B
:10451000614501D0226A10438A68834B1A400243E6
:104520008A602068C16A626A21F00F011143C1628A
:104530007E4923687E488B420DD1D0F8880010F068
:10454000030006D0012855D0022842D003283FD1CD
:1045500052E001203DE077498B420BD1D0F8880032
:1045600010F00C0035D0042833D0082840D00C2897
:104570002ED141E070498B420BD1D0F8880010F069
:10458000300026D0102835D0202831D030281FD137
:1045900032E06A498B420BD1D0F8880010F0C0009D
:1045A00017D0402826D0802822D0C02810D123E060
:1045B00063450DD1D0F8880010F4406009D0B0F503
:1045C000806F17D0B0F5006F12D0B0F5406F13D0E8
:1045D00010205B495B4F00264FF4004263453BD1FE
:1045E00060B1022813D004280BD0082872D10DE046
:1045F0000220EEE70420ECE70820EAE7FDF7C4FC20
:1046000001E0FDF7E5FC010001D17CE01146606AA4
:1046100037F810206768B1FBF2F007EB47038342DD
:1046200070D8B0EB073F6DD8002308461946FBF75A
:1046300053FE090241EA1061020278081018714124
:104640003A460023FBF748FE3F4AA0F540719142ED
:1046500058D82168C86056E0E3694FF6EF78934276
:104660002CD109284ED2DFE800F00508114D0D4D80
:104670004D4D1000FDF788FC01E0FDF797FC0100AF
:1046800004D140E0FDF7A4FCF9E71146606A37F871
:104690001000B1FBF0F04100606801EB5001B1FB8C
:1046A000F0F0A0F1100141452CD84FF6F071014017
:1046B000C0F3420001432068C16024E0092821D2F0
:1046C000DFE800F0050912200E2020201100FDF780
:1046D0005BFC02E016E0FDF769FC010004D112E08A
:1046E000FDF776FCF9E71146606A37F81000B1FB78
:1046F000F0F1606801EB5001B1FBF0F0A0F11001A6
:1047000041450AD901250120A4F86A0024F8680F60
:104710002846E6602661BDE8F08180B299E7000096
:1047200000800040F369FFCFFFF4FF110038014023
:10473000001002400044004000480040004C00408F
:104740000024F400DE550008FFFC0F0070B5816501
:10475000A0F85C20A0F85E200023436781684FF436
:104760008056FF24B14204D10169F9B940F2FF112A
:1047700022E07F25C1B1B1F1805F1AD0A0F860308E
:10478000C0F890302221C0F88C100168083151E83F
:10479000003F43F0010341E80034002CF5D1416EA5
:1047A000B1F1005F0ED031E0016941B9A0F860407D
:1047B000E6E7016919B13F21A0F86010E0E7A0F831
:1047C0006050DDE7B0F8681091421FD88168B142AF
:1047D00001D10169B9B11D494167016941B102685F
:1047E00052E8001F41F4807142E80013002BF6D11B
:1047F0000168083151E8002F42F0805241E800235F
:10480000002BF5D120E012494167F1E78168B14200
:1048100001D1016969B10F494167016959B1026864
:1048200052E8001F41F4907142E80013002BF6D1CA
:104830000AE009494167026852E8001F41F020017F
:1048400042E80013002BF6D1002070BD3943000868
:10485000D140000871420008094000082DE9F047E6
:10486000994617460D4604464FF00008089E33E06F
:10487000701C31D0FDF758F8A0EB0900B04218D8F1
:10488000BEB120680168490726D5802D24D0402D6F
:1048900022D0C169C94309070DD408250562204605
:1048A000FFF788FBC4F8905084F884800120BDE8AD
:1048B000F0870320FBE7C069C04300050CD42168E2
:1048C0004FF4006008622046FFF774FB2020C4F814
:1048D000900084F88480ECE72068C06935EA000025
:1048E00004D00020B842C3D00020E0E70120F9E75F
:1048F0000148FDF7F3BF00008C000020FEE703B481
:1049000001984100009850EAC12018BF04204A0DC8
:1049100018BF40F0010040F2FF72B2EB515F08BFD8
:1049200040F00200012808BF052002B070470907C7
:10493000090E002804DB00F1E02080F80014704725
:1049400000F00F0000F1E02080F8141D70473038AF
:104950000A2801D2012070470020704701B581B0BC
:10496000002001990090884201D2401CF9E70CBD5B
:1049700010B501222DED028B0421334800F066F8BA
:10498000314CB2EE048A133C4FF00102E07C4FF050
:104990000001552804F106002DD000F081F8012215
:1049A0001146E01D00F07CF894ED050A0122022179
:1049B00020EE080ABCEEC00A10EE100A2071201D7D
:1049C00000F06EF894ED060A0122032120EE080A99
:1049D000BCEEC00A10EE100A6071601D00F060F8B5
:1049E0005520E0740122BDEC028B0421BDE810408B
:1049F000154800F055B800F029F813480122114677
:104A00000C3800F023F81048012202210F3800F082
:104A10001DF82079012200EE100A0B480321B8EEA0
:104A2000400A0E38C0EE080AC4ED050A00F00EF880
:104A3000607900EE100AB8EE400AC0EE080AC4ED34
:104A4000060ABDEC028B10BD2300002070B5154690
:104A50000E460446FEF79AFAA020FEF758FAFEF733
:104A6000CBFA3046FEF753FAFEF7C6FAFEF78EFA97
:104A7000A120FEF74CFAFEF7BFFA09E0FEF708FAAC
:104A800004F8010B15B1FEF72AFA01E0FEF766FA09
:104A90006D1EEDB2F2D2BDE87040FEF792BA000092
:104AA00070B515460E460446FEF770FAA020FEF7D4
:104AB0002EFAFEF7A1FA3046FEF729FAFEF79CFA25
:104AC00009E000BF14F8010BFEF721FAFEF794FA93
:104AD000C820FFF743FF6D1EEDB2F3D2FEF771FA67
:104AE000BDE870400520FCF7DFBD00002DE9F04176
:104AF000994D01212DED048B82B02846FCF70AFF69
:104B0000964C022160722846FCF704FFA072042133
:104B10002846FCF7FFFEE07201214FF09040FCF7C1
:104B2000F9FE2073607A002548B92078012806D163
:104B3000207A401CC0B22072022800D92572A07AC7
:104B40009FED879B884FF7EE008AB2EE048A01261C
:104B5000A0B96078012811D1207A90B1012819D02C
:104B6000A079401CC0B2A071E17901432ED06574D8
:104B70007A4801220021801DFFF792FFE07A38B3C6
:104B80003CE0A07B401CC0B2A073A1798842F5D95B
:104B9000A573F3E7606900F0A5FC53EC192B00F056
:104BA000BBFA00F087FA6061B84201DDC4ED058A06
:104BB00094ED050A0122022120EE080ABCEEC00A8B
:104BC00010EE100A20716548001DD5E76674CFE726
:104BD000A078012812D1207A98B101281AD0E07962
:104BE000401CC0B2E071A17908432FD065745B48C6
:104BF0000122114610F10700FFF752FF207B38B366
:104C00009AE0E07B401CC0B2E073E1798842F5D9BC
:104C1000E573F3E7A06900F065FC53EC192B00F095
:104C20007BFA00F047FAA061B84201DDC4ED068AC4
:104C300094ED060A0122032120EE080ABCEEC00A08
:104C400010EE100A60714548401DD5E76674CEE746
:104C5000E078012870D1207A00286DD1A07BA2795C
:104C6000904262D8E17BE37999425ED8101AA07134
:104C7000581AE0714FF4C870810626748862B3EE4A
:104C80000E0A00F0CBF9A07BD4ED050A00EE100A65
:104C90008046E07BB8EE400A94ED061A074620EE07
:104CA000200A00EE900AF8EE600A00EE810A84ED18
:104CB000090A10EE100A00F015FCCDE900013B4690
:104CC00042462AA12F48FBF77FFB322314222D49AD
:104CD0002D48FEF76DF8214801220021801DFFF7C5
:104CE000DFFE1E4801221146C01DFFF7D9FE94EDDC
:104CF000050A0122022120EE080ABCEEC00A10EECD
:104D0000100A20711548001DFFF7CAFE94ED060A2F
:104D10000122032120EE080ABCEEC00A10EE100AA0
:104D200060710E48401DFFF7BBFEE079A179084392
:104D30000FD06574A573E573607A2070A07A6070F7
:104D4000E07AA070207BE07002B0BDEC048BBDE87F
:104D5000F0816674EEE700000004004810000020B7
:104D60009A9999999999B93F66660640583A2531BA
:104D7000642C593A2531642C5A3A252E31660D0A95
:104D800000000000390100208C00002010B5254CE7
:104D9000207A80B1012821D023A11820FEF7E8F95C
:104DA000A27927A12C48FBF70FFB2B494820FEF7DF
:104DB000DFF9E2790DE029A11820FEF7D9F9A27BED
:104DC0001FA12548FBF700FB23494820FEF7D0F937
:104DD000E27B28A12048FBF7F7FA1DE02BA1182061
:104DE000FEF7C6F9606900F07DFB41EC100B2DA1C8
:104DF00053EC102B1848FBF7E7FA17494820FEF749
:104E0000B7F9A06900F06EFB41EC100B2BA153EC3D
:104E1000102B1148FBF7D8FABDE810400E4960206E
:104E2000FEF7A6B9100000202020202020202020FE
:104E3000524550202020202020202020000000006B
:104E40002020202020583A253164202020202020B6
:104E500020202020202000002001002020202020D1
:104E60002020202053484F50202020202020202088
:104E7000000000002020202020593A253164202005
:104E80002020202020202020202000002020202062
:104E9000202020205052494345202020202020203F
:104EA000000000002020202020583A252E316620C6
:104EB0002020202020202020200000002020202052
:104EC00020593A252E316620202020202020202025
:104ED0002000000014490A681448036AD21A642AA0
:104EE00020D3096801620146037C4A7C897C53B166
:104EF0003AB121B10021817419B103200DE00121E3
:104F0000F9E7012009E052B121B10021817419B102
:104F1000022002E00121F9E7002000F009B8002B8F
:104F2000FAD0EEE7704700000800002010000020D3
:104F300070B5124D044601224FF47F412846FCF71C
:104F4000EEFC0F4E012204213046FCF7E8FC002263
:104F500004213046FCF7E3FC210200222846FCF73E
:104F6000DEFC012204213046FCF7D9FC3046BDE8C6
:104F7000704000220421FCF7D2BC00000008004869
:104F8000000C0048FCF7DEFCFEF7F1FCFEF738FAF7
:104F9000FEF7A0FAFDF766FFFEF7D4FA04211B48DE
:104FA000FDF7AEFB01221A491A48FDF7A1FEFFF7F3
:104FB000DFFC4FF4C87188068162C16ADFED160A12
:104FC000491C00EE101AB8EE400A20EE200ABCEE92
:104FD000C00A10EE101A81630020FFF7A9FFFEF748
:104FE00009F90020FEF760F94FF6FF70FEF770F93F
:104FF0000020FEF757F800BFFFF778FD00F024F817
:10500000FFF768FFFFF7C2FEF6E700004000002050
:105010001D0000208C000020CDCC4C3D9FED091AD6
:105020004FF08041C0EE010AC86A401C00EE100A31
:10503000B8EE400A20EE800ABCEEC00A10EE100A5C
:10504000886370470000C8420D4810B4017C0029F5
:1050500013D00C4A1368C4691B1B642B0DD3126850
:10506000C261491CC9B20174322906D900210174F8
:1050700010BCB1EE040AFFF7D1BF10BC70470000AE
:10508000100000200800002010B500290AD0087880
:10509000002807D005487844FBF774FE002801D0AB
:1050A000002010BD0248784410BD00000E1800001A
:1050B0000618000021F00042A2F16052B2F5801FF4
:1050C00001F0004328BFD2F17F6C0BD95FEA001CCE
:1050D00043EAC20242EB507018BF704728BF20F06D
:1050E00001007047B2F5801FBCBF184670474FEAF9
:1050F000410C1CF5001F02D2084600F069BA70B5D9
:1051000000F0B2F800000089FFF7F6BF4FF0004052
:10511000A0F580007047000010B591EA030F48BF6A
:1051200083F0004300F1FC80841A71EB030C05D27C
:10513000121943EB0C03001B61EB0C01DFF824E1B7
:105140004FEA1154A4EB135C1EEA430F18BF9EEA0A
:10515000445F73D023EA0E03DCF1200E21EA0451F0
:1051600043F4801332D322FA0CFE10EB0E0023FA24
:105170000CFE41EB0E01CCF1200E03FA0EFE10EBFB
:105180000E0051F10001B1F5801FCCF1200E32D29A
:1051900001EB045112FA0EF2BDE8104058BF7047FF
:1051A000401C38BF5FEA420218BF7047002814BF96
:1051B00020F0010041F100014FEA410313F5001F07
:1051C00038BF7047A1F1C04100F09CB8012A43EB01
:1051D0000302ACF1200CDCF11F0E32BF4FF0000EC9
:1051E00023FA0CF310EB030041EB0451B4EB115F15
:1051F000D0D0A1EB045101F5801149085FEA3000DD
:1052000001EB04510ED350F1000038BF12FA0EFE2C
:1052100008D1BDE81040C9E7401C38BF5FEA420230
:10522000CAD1C3E7BDE810404FEA410313F5001FA0
:1052300038BF7047A1F1C04100F064B89EEA445FF6
:1052400008D011EA5E0FBDE8104004BF01F0004134
:1052500000207047BDE8104070B500F005F800BFB1
:1052600064FBBE3E0000E0FF0EF1020E2EF0030EC6
:105270005EF8046B364205D4012A43EB030515F5AD
:10528000001F12D8012841EB010C1CF5001F0CD89F
:105290000ED14FEAD17C15F5001F0CEB4C0C0CF134
:1052A000020C08BF4CEBD37C04E04FF0080C01E08B
:1052B0004FEAD37C0CEB4C0526FA05F606F0070600
:1052C000B6F1040C06D20EEB860CBDE870404CF033
:1052D000010C6047DFE80CF0090B02024FF00041BF
:1052E0004FF00000A1F5002170BD194610460128BD
:1052F00051EB010418BFD4F5001484BF002001F065
:10530000004170BD0808A0F500114FEA3101704757
:1053100010B591EA030F48BF83F000433FF504AF97
:10532000841A71EB030C07D212198CF0004C43EB7A
:105330000C03001B61EB0C01DFF8A4E14FEA1154F0
:10534000A4EB135C1EEA430F18BF9EEA445F00F013
:10535000B08023EA6E03524221EA0451C3EB6E038C
:1053600038BF5B1EDCF1200E25D322FA0CFE10EBB9
:105370000E0043FA0CFE41EB0E01CCF1200E03FAB5
:105380000EFE10EB0E0051F10001CCF1200E29D4DD
:1053900012FA0EF201EB0451BDE8104058BF7047FD
:1053A000401C1CBFB2F1004F704700280CBF491CC5
:1053B00020F00100704712EB020E43EB030218BF0E
:1053C0004FF0010E4EEA4202ACF1200CDCF11E0E51
:1053D00054D943FA0CFE10EB0E0051F1FF31CCF121
:1053E0001E0ED5D50EF1010E12FA0EFE404141EB14
:1053F000010101EB445C5FEA5C5C10D910EBDE70EC
:1054000001EB045138BFBEF1004FBDE8104018BF9A
:10541000704700280CBF491C20F00100704730D2B3
:105420004FEAD42C11F5001124F400641BD0B1FA1A
:1054300081F20B3AA41AA41ED2F12003914030FA53
:1054400003F31943904001EBCC71002C01EB0451A4
:10545000BDE81040A8BF704701F1C0414FF0000007
:1054600001F000417047B0FA80F310FA03F100D167
:1054700010BDE41A173C4805C90AE4E701EB0451E2
:1054800010BD491001EB0451BDE810404FEA300057
:1054900002E04FF0000170474A0008BF0042F8D018
:1054A000B2F5001F28BF704701F000414FF0000027
:1054B00070479EEA445F07D011EA5E0FBDE81040D6
:1054C00004BF002100207047BDE8104070B5FFF711
:1054D000CBFE00BF40DFF63E83F000411046704730
:1054E0000000E0FF43004FEAD30C4FEA3C0C43407E
:1054F0001FBF40070CF1605113F0FE4F70471CF0C6
:10550000006F03D100200CF0004170470CF0004305
:1055100043EA507010B540EACC0000F00EF800BF2E
:10552000000000924FEA0001FFF7ECBE4FF000418F
:105530004FF00000A1F5002170470EF1020E2EF091
:10554000030E5EF8044B244204D44FEA4102B2F148
:105550007F4F11D84FEA4003B3F17F4F0CD80ED1E3
:105560004FEAD07CB2F17F4F0CEB4C0C0CF1020CEB
:1055700008BF4CEBD17C04E04FF0080C01E04FEA8F
:10558000D17C0CEB4C0324FA03F404F00704B4F1CF
:10559000040C06D20EEB840CBDE810404CF0010C5C
:1055A0006047DFE80CF0070802024FF00040A0F56A
:1055B000800010BD0846420018BFD2F1807288BF3B
:1055C00000F0004010BD4FF04070E1EE100A70474F
:1055D000FF2141EAD050C0057047FBF750B90100E8
:1055E00002000400060008000A000C001000200061
:1055F00040008000000101010103070100000804D0
:105600000204080101010000000000000000010286
:10561000030406070809000000000102030400005B
:10562000000000000000000000000000000000007A
:10563000000000000000000000000000000000006A
:10564000000000000000000000000000000000005A
:105650008001800180018001800180018001800142
:105660008001800180018001800100000000800134
:1056700080010000000000000000000000000000A9
:105680000000CC00CC00CC00CC00CC00CC00000052
:10569000000000000000000000000000000000000A
:1056A00000000000000000000000000000000000FA
:1056B00000000000000000000000600C600C600CA6
:1056C00030063006FE1FFE1F300638071803FE1F87
:1056D000FE1F180318038C018C018C0100000000D0
:1056E0008000E003F80F9C0E8C1C8C188C00980036
:1056F000F801E007800E801C8C188C189C18B80CE0
:10570000F00FE003800080000000000000000000B7
:10571000000000000E181B0C110C110611061103DD
:1057200011039B018E01C038C06C6044604430445A
:1057300030441844186C0C380000000000000000D1
:10574000E001F0033807180618063003F001F000F6
:10575000F8009C310E33061E061C061C063FFC7327
:10576000F021000000000000000000000000000028
:1057700000000C000C000C000C000C000C000000E1
:105780000000000000000000000000000000000019
:105790000000000000000000000000000000000009
:1057A000000200038001C000C00060006000300003
:1057B0003000300030003000300030003000600039
:1057C0006000C000C0008001000300020000000073
:1057D00020006000C000800180010003000300067B
:1057E000000600060006000600060006000600038C
:1057F000000380018001C000600020000000000064
:1058000000000000000000000000C000C000D8063A
:10581000F807E00130033807000000000000000036
:105820000000000000000000000000000000000078
:1058300000000000000000000000800180018001E5
:1058400080018001FC3FFC3F8001800180018001DC
:1058500080010000000000000000000000000000C7
:105860000000000000000000000000000000000038
:105870000000000000000000000000000000000028
:105880008001800100010001800000000000000094
:105890000000000000000000000000000000000008
:1058A000000000000000E007E0070000000000002A
:1058B00000000000000000000000000000000000E8
:1058C00000000000000000000000000000000000D8
:1058D00000000000000000000000000000000000C8
:1058E000C000C00000000000000000000000000038
:1058F000000C000C00060006000600030003000375
:105900008003800180018001C000C000C0006000F1
:105910006000000000000000000000000000000027
:10592000E003F007380E180C0C180C180C180C18A3
:105930000C180C180C180C180C18180C380EF00752
:10594000E003000000000000000000000000000074
:1059500000018001C001F0019801880180018001EF
:10596000800180018001800180018001800180012F
:1059700080010000000000000000000000000000A6
:10598000E003F80F180C0C180C1800180018000C85
:10599000000600038001C000600030001800FC1FFA
:1059A000FC1F0000000000000000000000000000DC
:1059B000E001F807180E0C0C0C0C000C0006C003DC
:1059C000C007000C001800180C180C18180CF80769
:1059D000E0030000000000000000000000000000E4
:1059E000000C000E000F000F800DC00C600C600C4E
:1059F000300C180C0C0CFC3FFC3F000C000C000C95
:105A0000000C00000000000000000000000000008A
:105A1000F80FF80F180018000C00EC03FC071C0E20
:105A2000001C0018001800180C181C0C180EF807A1
:105A3000E003000000000000000000000000000083
:105A4000C007F00F381C181818000C00CC03EC0F1E
:105A50003C0E1C1C0C180C180C18181C380EF007E7
:105A6000E003000000000000000000000000000053
:105A7000FC1FFC1F000C00060006000380038001D1
:105A8000C001C000E0006000600070003000300025
:105A900030000000000000000000000000000000D6
:105AA000E003F007380E180C180C180C3806F00735
:105AB000F007180C0C180C180C180C18380CF80FF0
:105AC000E0030000000000000000000000000000F3
:105AD000E003F007380E1C0C0C180C180C181C1CDA
